{
	"contracts/KipuBank.sol": {
		"KipuBank": {
			"abi": [
				{
					"inputs": [
						{
							"internalType": "uint256",
							"name": "_bankCap",
							"type": "uint256"
						},
						{
							"internalType": "uint256",
							"name": "_maxWithdrawPerTx",
							"type": "uint256"
						}
					],
					"stateMutability": "nonpayable",
					"type": "constructor"
				},
				{
					"inputs": [
						{
							"internalType": "uint256",
							"name": "bankCap",
							"type": "uint256"
						},
						{
							"internalType": "uint256",
							"name": "attempted",
							"type": "uint256"
						},
						{
							"internalType": "uint256",
							"name": "currentBankBalance",
							"type": "uint256"
						}
					],
					"name": "BankCapExceeded",
					"type": "error"
				},
				{
					"inputs": [
						{
							"internalType": "uint256",
							"name": "maxPerTx",
							"type": "uint256"
						},
						{
							"internalType": "uint256",
							"name": "attempted",
							"type": "uint256"
						}
					],
					"name": "ExceedsPerTxLimit",
					"type": "error"
				},
				{
					"inputs": [
						{
							"internalType": "uint256",
							"name": "available",
							"type": "uint256"
						},
						{
							"internalType": "uint256",
							"name": "required",
							"type": "uint256"
						}
					],
					"name": "InsufficientBalance",
					"type": "error"
				},
				{
					"inputs": [],
					"name": "ReentrantCall",
					"type": "error"
				},
				{
					"inputs": [
						{
							"internalType": "address",
							"name": "to",
							"type": "address"
						},
						{
							"internalType": "uint256",
							"name": "amount",
							"type": "uint256"
						}
					],
					"name": "TransferFailed",
					"type": "error"
				},
				{
					"inputs": [],
					"name": "ZeroValueNotAllowed",
					"type": "error"
				},
				{
					"anonymous": false,
					"inputs": [
						{
							"indexed": true,
							"internalType": "address",
							"name": "account",
							"type": "address"
						},
						{
							"indexed": false,
							"internalType": "uint256",
							"name": "amount",
							"type": "uint256"
						},
						{
							"indexed": false,
							"internalType": "uint256",
							"name": "newBalance",
							"type": "uint256"
						}
					],
					"name": "Deposit",
					"type": "event"
				},
				{
					"anonymous": false,
					"inputs": [
						{
							"indexed": true,
							"internalType": "address",
							"name": "account",
							"type": "address"
						},
						{
							"indexed": false,
							"internalType": "uint256",
							"name": "amount",
							"type": "uint256"
						},
						{
							"indexed": false,
							"internalType": "uint256",
							"name": "newBalance",
							"type": "uint256"
						}
					],
					"name": "Withdraw",
					"type": "event"
				},
				{
					"stateMutability": "payable",
					"type": "fallback"
				},
				{
					"inputs": [],
					"name": "bankCap",
					"outputs": [
						{
							"internalType": "uint256",
							"name": "",
							"type": "uint256"
						}
					],
					"stateMutability": "view",
					"type": "function"
				},
				{
					"inputs": [],
					"name": "contractBalance",
					"outputs": [
						{
							"internalType": "uint256",
							"name": "balance",
							"type": "uint256"
						}
					],
					"stateMutability": "view",
					"type": "function"
				},
				{
					"inputs": [],
					"name": "deposit",
					"outputs": [],
					"stateMutability": "payable",
					"type": "function"
				},
				{
					"inputs": [],
					"name": "depositCount",
					"outputs": [
						{
							"internalType": "uint256",
							"name": "",
							"type": "uint256"
						}
					],
					"stateMutability": "view",
					"type": "function"
				},
				{
					"inputs": [
						{
							"internalType": "address",
							"name": "",
							"type": "address"
						}
					],
					"name": "depositCountPerUser",
					"outputs": [
						{
							"internalType": "uint256",
							"name": "",
							"type": "uint256"
						}
					],
					"stateMutability": "view",
					"type": "function"
				},
				{
					"inputs": [
						{
							"internalType": "address",
							"name": "account",
							"type": "address"
						}
					],
					"name": "getVaultBalance",
					"outputs": [
						{
							"internalType": "uint256",
							"name": "balance",
							"type": "uint256"
						}
					],
					"stateMutability": "view",
					"type": "function"
				},
				{
					"inputs": [],
					"name": "maxWithdrawPerTx",
					"outputs": [
						{
							"internalType": "uint256",
							"name": "",
							"type": "uint256"
						}
					],
					"stateMutability": "view",
					"type": "function"
				},
				{
					"inputs": [],
					"name": "totalBankBalance",
					"outputs": [
						{
							"internalType": "uint256",
							"name": "",
							"type": "uint256"
						}
					],
					"stateMutability": "view",
					"type": "function"
				},
				{
					"inputs": [
						{
							"internalType": "uint256",
							"name": "amount",
							"type": "uint256"
						}
					],
					"name": "withdraw",
					"outputs": [],
					"stateMutability": "nonpayable",
					"type": "function"
				},
				{
					"inputs": [],
					"name": "withdrawCount",
					"outputs": [
						{
							"internalType": "uint256",
							"name": "",
							"type": "uint256"
						}
					],
					"stateMutability": "view",
					"type": "function"
				},
				{
					"stateMutability": "payable",
					"type": "receive"
				}
			],
			"devdoc": {
				"author": "Miguel Puente",
				"errors": {
					"BankCapExceeded(uint256,uint256,uint256)": [
						{
							"params": {
								"attempted": "Monto intentado (wei)",
								"bankCap": "Límite del banco (wei)",
								"currentBankBalance": "Balance actual (wei)"
							}
						}
					],
					"ExceedsPerTxLimit(uint256,uint256)": [
						{
							"params": {
								"attempted": "Monto solicitado (wei)",
								"maxPerTx": "Límite permitido (wei)"
							}
						}
					],
					"InsufficientBalance(uint256,uint256)": [
						{
							"params": {
								"available": "Balance disponible (wei)",
								"required": "Monto requerido (wei)"
							}
						}
					],
					"TransferFailed(address,uint256)": [
						{
							"params": {
								"amount": "Monto (wei)",
								"to": "Dirección destino"
							}
						}
					]
				},
				"events": {
					"Deposit(address,uint256,uint256)": {
						"params": {
							"account": "Dirección del depositante",
							"amount": "Monto depositado (en wei)",
							"newBalance": "Nuevo balance del usuario tras el depósito"
						}
					},
					"Withdraw(address,uint256,uint256)": {
						"params": {
							"account": "Dirección que realiza el retiro",
							"amount": "Monto retirado (en wei)",
							"newBalance": "Nuevo balance del usuario tras el retiro"
						}
					}
				},
				"kind": "dev",
				"methods": {
					"constructor": {
						"params": {
							"_bankCap": "Límite máximo de ETH (en wei) que puede almacenar el contrato",
							"_maxWithdrawPerTx": "Límite por retiro y por transacción (en wei)"
						}
					},
					"contractBalance()": {
						"returns": {
							"balance": "Balance del contrato en wei."
						}
					},
					"deposit()": {
						"details": "Utiliza el modificador `nonReentrant` y delega la lógica a la función privada `_deposit`."
					},
					"getVaultBalance(address)": {
						"params": {
							"account": "Dirección del usuario."
						},
						"returns": {
							"balance": "Balance en wei de la bóveda."
						}
					},
					"withdraw(uint256)": {
						"params": {
							"amount": "Monto a retirar en wei."
						}
					}
				},
				"title": "KipuBank - Vaults personales en ETH con límites y contadores",
				"version": 1
			},
			"evm": {
				"assembly": "    /* \"contracts/KipuBank.sol\":434:9272  contract KipuBank {... */\n  mstore(0x40, 0xc0)\n    /* \"contracts/KipuBank.sol\":3113:3114  1 */\n  0x01\n    /* \"contracts/KipuBank.sol\":3087:3114  uint256 private _locked = 1 */\n  0x05\n  sstore\n    /* \"contracts/KipuBank.sol\":4420:4645  constructor(uint256 _bankCap, uint256 _maxWithdrawPerTx) {... */\n  callvalue\n  dup1\n  iszero\n  tag_1\n  jumpi\n  0x00\n  dup1\n  revert\ntag_1:\n  pop\n  mload(0x40)\n  sub(codesize, bytecodeSize)\n  dup1\n  bytecodeSize\n  dup4\n  codecopy\n  dup2\n  dup2\n  add\n  0x40\n  mstore\n  dup2\n  add\n  swap1\n  tag_2\n  swap2\n  swap1\n  tag_3\n  jump\t// in\ntag_2:\n    /* \"contracts/KipuBank.sol\":4504:4505  0 */\n  0x00\n    /* \"contracts/KipuBank.sol\":4492:4500  _bankCap */\n  dup3\n    /* \"contracts/KipuBank.sol\":4492:4505  _bankCap == 0 */\n  eq\n    /* \"contracts/KipuBank.sol\":4492:4531  _bankCap == 0 || _maxWithdrawPerTx == 0 */\n  dup1\n  tag_6\n  jumpi\n  pop\n    /* \"contracts/KipuBank.sol\":4530:4531  0 */\n  0x00\n    /* \"contracts/KipuBank.sol\":4509:4526  _maxWithdrawPerTx */\n  dup2\n    /* \"contracts/KipuBank.sol\":4509:4531  _maxWithdrawPerTx == 0 */\n  eq\n    /* \"contracts/KipuBank.sol\":4492:4531  _bankCap == 0 || _maxWithdrawPerTx == 0 */\ntag_6:\n    /* \"contracts/KipuBank.sol\":4488:4561  if (_bankCap == 0 || _maxWithdrawPerTx == 0) revert ZeroValueNotAllowed() */\n  iszero\n  tag_7\n  jumpi\n    /* \"contracts/KipuBank.sol\":4540:4561  ZeroValueNotAllowed() */\n  mload(0x40)\n  0x9cf8540c00000000000000000000000000000000000000000000000000000000\n  dup2\n  mstore\n  0x04\n  add\n  mload(0x40)\n  dup1\n  swap2\n  sub\n  swap1\n  revert\n    /* \"contracts/KipuBank.sol\":4488:4561  if (_bankCap == 0 || _maxWithdrawPerTx == 0) revert ZeroValueNotAllowed() */\ntag_7:\n    /* \"contracts/KipuBank.sol\":4582:4590  _bankCap */\n  dup2\n    /* \"contracts/KipuBank.sol\":4572:4590  bankCap = _bankCap */\n  0x80\n  dup2\n  dup2\n  mstore\n  pop\n  pop\n    /* \"contracts/KipuBank.sol\":4620:4637  _maxWithdrawPerTx */\n  dup1\n    /* \"contracts/KipuBank.sol\":4601:4637  maxWithdrawPerTx = _maxWithdrawPerTx */\n  0xa0\n  dup2\n  dup2\n  mstore\n  pop\n  pop\n    /* \"contracts/KipuBank.sol\":4420:4645  constructor(uint256 _bankCap, uint256 _maxWithdrawPerTx) {... */\n  pop\n  pop\n    /* \"contracts/KipuBank.sol\":434:9272  contract KipuBank {... */\n  jump(tag_8)\n    /* \"#utility.yul\":88:205   */\ntag_10:\n    /* \"#utility.yul\":197:198   */\n  0x00\n    /* \"#utility.yul\":194:195   */\n  dup1\n    /* \"#utility.yul\":187:199   */\n  revert\n    /* \"#utility.yul\":334:411   */\ntag_12:\n    /* \"#utility.yul\":371:378   */\n  0x00\n    /* \"#utility.yul\":400:405   */\n  dup2\n    /* \"#utility.yul\":389:405   */\n  swap1\n  pop\n    /* \"#utility.yul\":334:411   */\n  swap2\n  swap1\n  pop\n  jump\t// out\n    /* \"#utility.yul\":417:539   */\ntag_13:\n    /* \"#utility.yul\":490:514   */\n  tag_21\n    /* \"#utility.yul\":508:513   */\n  dup2\n    /* \"#utility.yul\":490:514   */\n  tag_12\n  jump\t// in\ntag_21:\n    /* \"#utility.yul\":483:488   */\n  dup2\n    /* \"#utility.yul\":480:515   */\n  eq\n    /* \"#utility.yul\":470:533   */\n  tag_22\n  jumpi\n    /* \"#utility.yul\":529:530   */\n  0x00\n    /* \"#utility.yul\":526:527   */\n  dup1\n    /* \"#utility.yul\":519:531   */\n  revert\n    /* \"#utility.yul\":470:533   */\ntag_22:\n    /* \"#utility.yul\":417:539   */\n  pop\n  jump\t// out\n    /* \"#utility.yul\":545:688   */\ntag_14:\n    /* \"#utility.yul\":602:607   */\n  0x00\n    /* \"#utility.yul\":633:639   */\n  dup2\n    /* \"#utility.yul\":627:640   */\n  mload\n    /* \"#utility.yul\":618:640   */\n  swap1\n  pop\n    /* \"#utility.yul\":649:682   */\n  tag_24\n    /* \"#utility.yul\":676:681   */\n  dup2\n    /* \"#utility.yul\":649:682   */\n  tag_13\n  jump\t// in\ntag_24:\n    /* \"#utility.yul\":545:688   */\n  swap3\n  swap2\n  pop\n  pop\n  jump\t// out\n    /* \"#utility.yul\":694:1201   */\ntag_3:\n    /* \"#utility.yul\":773:779   */\n  0x00\n    /* \"#utility.yul\":781:787   */\n  dup1\n    /* \"#utility.yul\":830:832   */\n  0x40\n    /* \"#utility.yul\":818:827   */\n  dup4\n    /* \"#utility.yul\":809:816   */\n  dup6\n    /* \"#utility.yul\":805:828   */\n  sub\n    /* \"#utility.yul\":801:833   */\n  slt\n    /* \"#utility.yul\":798:917   */\n  iszero\n  tag_26\n  jumpi\n    /* \"#utility.yul\":836:915   */\n  tag_27\n  tag_10\n  jump\t// in\ntag_27:\n    /* \"#utility.yul\":798:917   */\ntag_26:\n    /* \"#utility.yul\":956:957   */\n  0x00\n    /* \"#utility.yul\":981:1045   */\n  tag_28\n    /* \"#utility.yul\":1037:1044   */\n  dup6\n    /* \"#utility.yul\":1028:1034   */\n  dup3\n    /* \"#utility.yul\":1017:1026   */\n  dup7\n    /* \"#utility.yul\":1013:1035   */\n  add\n    /* \"#utility.yul\":981:1045   */\n  tag_14\n  jump\t// in\ntag_28:\n    /* \"#utility.yul\":971:1045   */\n  swap3\n  pop\n    /* \"#utility.yul\":927:1055   */\n  pop\n    /* \"#utility.yul\":1094:1096   */\n  0x20\n    /* \"#utility.yul\":1120:1184   */\n  tag_29\n    /* \"#utility.yul\":1176:1183   */\n  dup6\n    /* \"#utility.yul\":1167:1173   */\n  dup3\n    /* \"#utility.yul\":1156:1165   */\n  dup7\n    /* \"#utility.yul\":1152:1174   */\n  add\n    /* \"#utility.yul\":1120:1184   */\n  tag_14\n  jump\t// in\ntag_29:\n    /* \"#utility.yul\":1110:1184   */\n  swap2\n  pop\n    /* \"#utility.yul\":1065:1194   */\n  pop\n    /* \"#utility.yul\":694:1201   */\n  swap3\n  pop\n  swap3\n  swap1\n  pop\n  jump\t// out\n    /* \"contracts/KipuBank.sol\":434:9272  contract KipuBank {... */\ntag_8:\n  mload(0x80)\n  mload(0xa0)\n  codecopy(0x00, dataOffset(sub_0), dataSize(sub_0))\n  0x00\n  assignImmutable(\"0x2e9b7c94e032d8b3b8b30bd825717a5ac74958b53e7c37a892a4fd7dc56e4975\")\n  0x00\n  assignImmutable(\"0x6bcaf047ba4c8ac400fca43393035242dd1aabda2d6068a0c51242b97224de8d\")\n  return(0x00, dataSize(sub_0))\nstop\n\nsub_0: assembly {\n        /* \"contracts/KipuBank.sol\":434:9272  contract KipuBank {... */\n      mstore(0x40, 0x80)\n      jumpi(tag_1, lt(calldatasize, 0x04))\n      shr(0xe0, calldataload(0x00))\n      dup1\n      0x5d926ced\n      gt\n      tag_13\n      jumpi\n      dup1\n      0x5d926ced\n      eq\n      tag_8\n      jumpi\n      dup1\n      0x8b7afe2e\n      eq\n      tag_9\n      jumpi\n      dup1\n      0xd0e30db0\n      eq\n      tag_10\n      jumpi\n      dup1\n      0xd3d7c002\n      eq\n      tag_11\n      jumpi\n      dup1\n      0xecbea24d\n      eq\n      tag_12\n      jumpi\n      jump(tag_2)\n    tag_13:\n      dup1\n      0x1977e938\n      eq\n      tag_3\n      jumpi\n      dup1\n      0x2dfdf0b5\n      eq\n      tag_4\n      jumpi\n      dup1\n      0x2e1a7d4d\n      eq\n      tag_5\n      jumpi\n      dup1\n      0x390d3f62\n      eq\n      tag_6\n      jumpi\n      dup1\n      0x4cc05a71\n      eq\n      tag_7\n      jumpi\n      jump(tag_2)\n    tag_1:\n      jumpi(tag_2, calldatasize)\n        /* \"contracts/KipuBank.sol\":5385:5416  _deposit(msg.sender, msg.value) */\n      tag_16\n        /* \"contracts/KipuBank.sol\":5394:5404  msg.sender */\n      caller\n        /* \"contracts/KipuBank.sol\":5406:5415  msg.value */\n      callvalue\n        /* \"contracts/KipuBank.sol\":5385:5393  _deposit */\n      tag_17\n        /* \"contracts/KipuBank.sol\":5385:5416  _deposit(msg.sender, msg.value) */\n      jump\t// in\n    tag_16:\n        /* \"contracts/KipuBank.sol\":434:9272  contract KipuBank {... */\n      stop\n    tag_2:\n        /* \"contracts/KipuBank.sol\":5574:5605  _deposit(msg.sender, msg.value) */\n      tag_20\n        /* \"contracts/KipuBank.sol\":5583:5593  msg.sender */\n      caller\n        /* \"contracts/KipuBank.sol\":5595:5604  msg.value */\n      callvalue\n        /* \"contracts/KipuBank.sol\":5574:5582  _deposit */\n      tag_17\n        /* \"contracts/KipuBank.sol\":5574:5605  _deposit(msg.sender, msg.value) */\n      jump\t// in\n    tag_20:\n        /* \"contracts/KipuBank.sol\":434:9272  contract KipuBank {... */\n      stop\n        /* \"contracts/KipuBank.sol\":2527:2558  uint256 public totalBankBalance */\n    tag_3:\n      callvalue\n      dup1\n      iszero\n      tag_21\n      jumpi\n      0x00\n      dup1\n      revert\n    tag_21:\n      pop\n      tag_22\n      tag_23\n      jump\t// in\n    tag_22:\n      mload(0x40)\n      tag_24\n      swap2\n      swap1\n      tag_25\n      jump\t// in\n    tag_24:\n      mload(0x40)\n      dup1\n      swap2\n      sub\n      swap1\n      return\n        /* \"contracts/KipuBank.sol\":2760:2787  uint256 public depositCount */\n    tag_4:\n      callvalue\n      dup1\n      iszero\n      tag_26\n      jumpi\n      0x00\n      dup1\n      revert\n    tag_26:\n      pop\n      tag_27\n      tag_28\n      jump\t// in\n    tag_27:\n      mload(0x40)\n      tag_29\n      swap2\n      swap1\n      tag_25\n      jump\t// in\n    tag_29:\n      mload(0x40)\n      dup1\n      swap2\n      sub\n      swap1\n      return\n        /* \"contracts/KipuBank.sol\":6284:6967  function withdraw(uint256 amount) external nonReentrant {... */\n    tag_5:\n      callvalue\n      dup1\n      iszero\n      tag_30\n      jumpi\n      0x00\n      dup1\n      revert\n    tag_30:\n      pop\n      tag_31\n      0x04\n      dup1\n      calldatasize\n      sub\n      dup2\n      add\n      swap1\n      tag_32\n      swap2\n      swap1\n      tag_33\n      jump\t// in\n    tag_32:\n      tag_34\n      jump\t// in\n    tag_31:\n      stop\n        /* \"contracts/KipuBank.sol\":2939:2993  mapping(address => uint256) public depositCountPerUser */\n    tag_6:\n      callvalue\n      dup1\n      iszero\n      tag_35\n      jumpi\n      0x00\n      dup1\n      revert\n    tag_35:\n      pop\n      tag_36\n      0x04\n      dup1\n      calldatasize\n      sub\n      dup2\n      add\n      swap1\n      tag_37\n      swap2\n      swap1\n      tag_38\n      jump\t// in\n    tag_37:\n      tag_39\n      jump\t// in\n    tag_36:\n      mload(0x40)\n      tag_40\n      swap2\n      swap1\n      tag_25\n      jump\t// in\n    tag_40:\n      mload(0x40)\n      dup1\n      swap2\n      sub\n      swap1\n      return\n        /* \"contracts/KipuBank.sol\":2850:2878  uint256 public withdrawCount */\n    tag_7:\n      callvalue\n      dup1\n      iszero\n      tag_41\n      jumpi\n      0x00\n      dup1\n      revert\n    tag_41:\n      pop\n      tag_42\n      tag_43\n      jump\t// in\n    tag_42:\n      mload(0x40)\n      tag_44\n      swap2\n      swap1\n      tag_25\n      jump\t// in\n    tag_44:\n      mload(0x40)\n      dup1\n      swap2\n      sub\n      swap1\n      return\n        /* \"contracts/KipuBank.sol\":2203:2244  uint256 public immutable maxWithdrawPerTx */\n    tag_8:\n      callvalue\n      dup1\n      iszero\n      tag_45\n      jumpi\n      0x00\n      dup1\n      revert\n    tag_45:\n      pop\n      tag_46\n      tag_47\n      jump\t// in\n    tag_46:\n      mload(0x40)\n      tag_48\n      swap2\n      swap1\n      tag_25\n      jump\t// in\n    tag_48:\n      mload(0x40)\n      dup1\n      swap2\n      sub\n      swap1\n      return\n        /* \"contracts/KipuBank.sol\":7638:7752  function contractBalance() external view returns (uint256 balance) {... */\n    tag_9:\n      callvalue\n      dup1\n      iszero\n      tag_49\n      jumpi\n      0x00\n      dup1\n      revert\n    tag_49:\n      pop\n      tag_50\n      tag_51\n      jump\t// in\n    tag_50:\n      mload(0x40)\n      tag_52\n      swap2\n      swap1\n      tag_25\n      jump\t// in\n    tag_52:\n      mload(0x40)\n      dup1\n      swap2\n      sub\n      swap1\n      return\n        /* \"contracts/KipuBank.sol\":6005:6172  function deposit() external payable nonReentrant {... */\n    tag_10:\n      tag_53\n      tag_54\n      jump\t// in\n    tag_53:\n      stop\n        /* \"contracts/KipuBank.sol\":7339:7462  function getVaultBalance(address account) external view returns (uint256 balance) {... */\n    tag_11:\n      callvalue\n      dup1\n      iszero\n      tag_55\n      jumpi\n      0x00\n      dup1\n      revert\n    tag_55:\n      pop\n      tag_56\n      0x04\n      dup1\n      calldatasize\n      sub\n      dup2\n      add\n      swap1\n      tag_57\n      swap2\n      swap1\n      tag_38\n      jump\t// in\n    tag_57:\n      tag_58\n      jump\t// in\n    tag_56:\n      mload(0x40)\n      tag_59\n      swap2\n      swap1\n      tag_25\n      jump\t// in\n    tag_59:\n      mload(0x40)\n      dup1\n      swap2\n      sub\n      swap1\n      return\n        /* \"contracts/KipuBank.sol\":2081:2113  uint256 public immutable bankCap */\n    tag_12:\n      callvalue\n      dup1\n      iszero\n      tag_60\n      jumpi\n      0x00\n      dup1\n      revert\n    tag_60:\n      pop\n      tag_61\n      tag_62\n      jump\t// in\n    tag_61:\n      mload(0x40)\n      tag_63\n      swap2\n      swap1\n      tag_25\n      jump\t// in\n    tag_63:\n      mload(0x40)\n      dup1\n      swap2\n      sub\n      swap1\n      return\n        /* \"contracts/KipuBank.sol\":8156:8764  function _deposit(address sender, uint256 amount) private {... */\n    tag_17:\n        /* \"contracts/KipuBank.sol\":8258:8259  0 */\n      0x00\n        /* \"contracts/KipuBank.sol\":8248:8254  amount */\n      dup2\n        /* \"contracts/KipuBank.sol\":8248:8259  amount == 0 */\n      sub\n        /* \"contracts/KipuBank.sol\":8244:8289  if (amount == 0) revert ZeroValueNotAllowed() */\n      tag_65\n      jumpi\n        /* \"contracts/KipuBank.sol\":8268:8289  ZeroValueNotAllowed() */\n      mload(0x40)\n      0x9cf8540c00000000000000000000000000000000000000000000000000000000\n      dup2\n      mstore\n      0x04\n      add\n      mload(0x40)\n      dup1\n      swap2\n      sub\n      swap1\n      revert\n        /* \"contracts/KipuBank.sol\":8244:8289  if (amount == 0) revert ZeroValueNotAllowed() */\n    tag_65:\n        /* \"contracts/KipuBank.sol\":8379:8395  uint256 newTotal */\n      0x00\n        /* \"contracts/KipuBank.sol\":8417:8423  amount */\n      dup2\n        /* \"contracts/KipuBank.sol\":8398:8414  totalBankBalance */\n      sload(0x00)\n        /* \"contracts/KipuBank.sol\":8398:8423  totalBankBalance + amount */\n      tag_66\n      swap2\n      swap1\n      tag_67\n      jump\t// in\n    tag_66:\n        /* \"contracts/KipuBank.sol\":8379:8423  uint256 newTotal = totalBankBalance + amount */\n      swap1\n      pop\n        /* \"contracts/KipuBank.sol\":8449:8456  bankCap */\n      immutable(\"0x6bcaf047ba4c8ac400fca43393035242dd1aabda2d6068a0c51242b97224de8d\")\n        /* \"contracts/KipuBank.sol\":8438:8446  newTotal */\n      dup2\n        /* \"contracts/KipuBank.sol\":8438:8456  newTotal > bankCap */\n      gt\n        /* \"contracts/KipuBank.sol\":8434:8515  if (newTotal > bankCap) revert BankCapExceeded(bankCap, amount, totalBankBalance) */\n      iszero\n      tag_68\n      jumpi\n        /* \"contracts/KipuBank.sol\":8481:8488  bankCap */\n      immutable(\"0x6bcaf047ba4c8ac400fca43393035242dd1aabda2d6068a0c51242b97224de8d\")\n        /* \"contracts/KipuBank.sol\":8490:8496  amount */\n      dup3\n        /* \"contracts/KipuBank.sol\":8498:8514  totalBankBalance */\n      sload(0x00)\n        /* \"contracts/KipuBank.sol\":8465:8515  BankCapExceeded(bankCap, amount, totalBankBalance) */\n      mload(0x40)\n      0x621e5a6900000000000000000000000000000000000000000000000000000000\n      dup2\n      mstore\n      0x04\n      add\n      tag_69\n      swap4\n      swap3\n      swap2\n      swap1\n      tag_70\n      jump\t// in\n    tag_69:\n      mload(0x40)\n      dup1\n      swap2\n      sub\n      swap1\n      revert\n        /* \"contracts/KipuBank.sol\":8434:8515  if (newTotal > bankCap) revert BankCapExceeded(bankCap, amount, totalBankBalance) */\n    tag_68:\n        /* \"contracts/KipuBank.sol\":8566:8572  amount */\n      dup2\n        /* \"contracts/KipuBank.sol\":8548:8554  vaults */\n      0x01\n        /* \"contracts/KipuBank.sol\":8548:8562  vaults[sender] */\n      0x00\n        /* \"contracts/KipuBank.sol\":8555:8561  sender */\n      dup6\n        /* \"contracts/KipuBank.sol\":8548:8562  vaults[sender] */\n      0xffffffffffffffffffffffffffffffffffffffff\n      and\n      0xffffffffffffffffffffffffffffffffffffffff\n      and\n      dup2\n      mstore\n      0x20\n      add\n      swap1\n      dup2\n      mstore\n      0x20\n      add\n      0x00\n      keccak256\n      0x00\n        /* \"contracts/KipuBank.sol\":8548:8572  vaults[sender] += amount */\n      dup3\n      dup3\n      sload\n      tag_71\n      swap2\n      swap1\n      tag_67\n      jump\t// in\n    tag_71:\n      swap3\n      pop\n      pop\n      dup2\n      swap1\n      sstore\n      pop\n        /* \"contracts/KipuBank.sol\":8602:8610  newTotal */\n      dup1\n        /* \"contracts/KipuBank.sol\":8583:8599  totalBankBalance */\n      0x00\n        /* \"contracts/KipuBank.sol\":8583:8610  totalBankBalance = newTotal */\n      dup2\n      swap1\n      sstore\n      pop\n        /* \"contracts/KipuBank.sol\":8637:8638  1 */\n      0x01\n        /* \"contracts/KipuBank.sol\":8621:8633  depositCount */\n      0x02\n      0x00\n        /* \"contracts/KipuBank.sol\":8621:8638  depositCount += 1 */\n      dup3\n      dup3\n      sload\n      tag_72\n      swap2\n      swap1\n      tag_67\n      jump\t// in\n    tag_72:\n      swap3\n      pop\n      pop\n      dup2\n      swap1\n      sstore\n      pop\n        /* \"contracts/KipuBank.sol\":8680:8681  1 */\n      0x01\n        /* \"contracts/KipuBank.sol\":8649:8668  depositCountPerUser */\n      0x04\n        /* \"contracts/KipuBank.sol\":8649:8676  depositCountPerUser[sender] */\n      0x00\n        /* \"contracts/KipuBank.sol\":8669:8675  sender */\n      dup6\n        /* \"contracts/KipuBank.sol\":8649:8676  depositCountPerUser[sender] */\n      0xffffffffffffffffffffffffffffffffffffffff\n      and\n      0xffffffffffffffffffffffffffffffffffffffff\n      and\n      dup2\n      mstore\n      0x20\n      add\n      swap1\n      dup2\n      mstore\n      0x20\n      add\n      0x00\n      keccak256\n      0x00\n        /* \"contracts/KipuBank.sol\":8649:8681  depositCountPerUser[sender] += 1 */\n      dup3\n      dup3\n      sload\n      tag_73\n      swap2\n      swap1\n      tag_67\n      jump\t// in\n    tag_73:\n      swap3\n      pop\n      pop\n      dup2\n      swap1\n      sstore\n      pop\n        /* \"contracts/KipuBank.sol\":8725:8731  sender */\n      dup3\n        /* \"contracts/KipuBank.sol\":8717:8756  Deposit(sender, amount, vaults[sender]) */\n      0xffffffffffffffffffffffffffffffffffffffff\n      and\n      0x90890809c654f11d6e72a28fa60149770a0d11ec6c92319d6ceb2bb0a4ea1a15\n        /* \"contracts/KipuBank.sol\":8733:8739  amount */\n      dup4\n        /* \"contracts/KipuBank.sol\":8741:8747  vaults */\n      0x01\n        /* \"contracts/KipuBank.sol\":8741:8755  vaults[sender] */\n      0x00\n        /* \"contracts/KipuBank.sol\":8748:8754  sender */\n      dup8\n        /* \"contracts/KipuBank.sol\":8741:8755  vaults[sender] */\n      0xffffffffffffffffffffffffffffffffffffffff\n      and\n      0xffffffffffffffffffffffffffffffffffffffff\n      and\n      dup2\n      mstore\n      0x20\n      add\n      swap1\n      dup2\n      mstore\n      0x20\n      add\n      0x00\n      keccak256\n      sload\n        /* \"contracts/KipuBank.sol\":8717:8756  Deposit(sender, amount, vaults[sender]) */\n      mload(0x40)\n      tag_74\n      swap3\n      swap2\n      swap1\n      tag_75\n      jump\t// in\n    tag_74:\n      mload(0x40)\n      dup1\n      swap2\n      sub\n      swap1\n      log2\n        /* \"contracts/KipuBank.sol\":8214:8764  {... */\n      pop\n        /* \"contracts/KipuBank.sol\":8156:8764  function _deposit(address sender, uint256 amount) private {... */\n      pop\n      pop\n      jump\t// out\n        /* \"contracts/KipuBank.sol\":2527:2558  uint256 public totalBankBalance */\n    tag_23:\n      sload(0x00)\n      dup2\n      jump\t// out\n        /* \"contracts/KipuBank.sol\":2760:2787  uint256 public depositCount */\n    tag_28:\n      sload(0x02)\n      dup2\n      jump\t// out\n        /* \"contracts/KipuBank.sol\":6284:6967  function withdraw(uint256 amount) external nonReentrant {... */\n    tag_34:\n        /* \"contracts/KipuBank.sol\":4952:4953  1 */\n      0x01\n        /* \"contracts/KipuBank.sol\":4941:4948  _locked */\n      sload(0x05)\n        /* \"contracts/KipuBank.sol\":4941:4953  _locked != 1 */\n      eq\n        /* \"contracts/KipuBank.sol\":4937:4977  if (_locked != 1) revert ReentrantCall() */\n      tag_77\n      jumpi\n        /* \"contracts/KipuBank.sol\":4962:4977  ReentrantCall() */\n      mload(0x40)\n      0x37ed32e800000000000000000000000000000000000000000000000000000000\n      dup2\n      mstore\n      0x04\n      add\n      mload(0x40)\n      dup1\n      swap2\n      sub\n      swap1\n      revert\n        /* \"contracts/KipuBank.sol\":4937:4977  if (_locked != 1) revert ReentrantCall() */\n    tag_77:\n        /* \"contracts/KipuBank.sol\":4998:4999  2 */\n      0x02\n        /* \"contracts/KipuBank.sol\":4988:4995  _locked */\n      0x05\n        /* \"contracts/KipuBank.sol\":4988:4999  _locked = 2 */\n      dup2\n      swap1\n      sstore\n      pop\n        /* \"contracts/KipuBank.sol\":6384:6385  0 */\n      0x00\n        /* \"contracts/KipuBank.sol\":6374:6380  amount */\n      dup2\n        /* \"contracts/KipuBank.sol\":6374:6385  amount == 0 */\n      sub\n        /* \"contracts/KipuBank.sol\":6370:6415  if (amount == 0) revert ZeroValueNotAllowed() */\n      tag_79\n      jumpi\n        /* \"contracts/KipuBank.sol\":6394:6415  ZeroValueNotAllowed() */\n      mload(0x40)\n      0x9cf8540c00000000000000000000000000000000000000000000000000000000\n      dup2\n      mstore\n      0x04\n      add\n      mload(0x40)\n      dup1\n      swap2\n      sub\n      swap1\n      revert\n        /* \"contracts/KipuBank.sol\":6370:6415  if (amount == 0) revert ZeroValueNotAllowed() */\n    tag_79:\n        /* \"contracts/KipuBank.sol\":6439:6455  maxWithdrawPerTx */\n      immutable(\"0x2e9b7c94e032d8b3b8b30bd825717a5ac74958b53e7c37a892a4fd7dc56e4975\")\n        /* \"contracts/KipuBank.sol\":6430:6436  amount */\n      dup2\n        /* \"contracts/KipuBank.sol\":6430:6455  amount > maxWithdrawPerTx */\n      gt\n        /* \"contracts/KipuBank.sol\":6426:6507  if (amount > maxWithdrawPerTx) revert ExceedsPerTxLimit(maxWithdrawPerTx, amount) */\n      iszero\n      tag_80\n      jumpi\n        /* \"contracts/KipuBank.sol\":6482:6498  maxWithdrawPerTx */\n      immutable(\"0x2e9b7c94e032d8b3b8b30bd825717a5ac74958b53e7c37a892a4fd7dc56e4975\")\n        /* \"contracts/KipuBank.sol\":6500:6506  amount */\n      dup2\n        /* \"contracts/KipuBank.sol\":6464:6507  ExceedsPerTxLimit(maxWithdrawPerTx, amount) */\n      mload(0x40)\n      0xd1e6b2fa00000000000000000000000000000000000000000000000000000000\n      dup2\n      mstore\n      0x04\n      add\n      tag_81\n      swap3\n      swap2\n      swap1\n      tag_75\n      jump\t// in\n    tag_81:\n      mload(0x40)\n      dup1\n      swap2\n      sub\n      swap1\n      revert\n        /* \"contracts/KipuBank.sol\":6426:6507  if (amount > maxWithdrawPerTx) revert ExceedsPerTxLimit(maxWithdrawPerTx, amount) */\n    tag_80:\n        /* \"contracts/KipuBank.sol\":6520:6539  uint256 userBalance */\n      0x00\n        /* \"contracts/KipuBank.sol\":6542:6548  vaults */\n      0x01\n        /* \"contracts/KipuBank.sol\":6542:6560  vaults[msg.sender] */\n      0x00\n        /* \"contracts/KipuBank.sol\":6549:6559  msg.sender */\n      caller\n        /* \"contracts/KipuBank.sol\":6542:6560  vaults[msg.sender] */\n      0xffffffffffffffffffffffffffffffffffffffff\n      and\n      0xffffffffffffffffffffffffffffffffffffffff\n      and\n      dup2\n      mstore\n      0x20\n      add\n      swap1\n      dup2\n      mstore\n      0x20\n      add\n      0x00\n      keccak256\n      sload\n        /* \"contracts/KipuBank.sol\":6520:6560  uint256 userBalance = vaults[msg.sender] */\n      swap1\n      pop\n        /* \"contracts/KipuBank.sol\":6584:6595  userBalance */\n      dup1\n        /* \"contracts/KipuBank.sol\":6575:6581  amount */\n      dup3\n        /* \"contracts/KipuBank.sol\":6575:6595  amount > userBalance */\n      gt\n        /* \"contracts/KipuBank.sol\":6571:6644  if (amount > userBalance) revert InsufficientBalance(userBalance, amount) */\n      iszero\n      tag_82\n      jumpi\n        /* \"contracts/KipuBank.sol\":6624:6635  userBalance */\n      dup1\n        /* \"contracts/KipuBank.sol\":6637:6643  amount */\n      dup3\n        /* \"contracts/KipuBank.sol\":6604:6644  InsufficientBalance(userBalance, amount) */\n      mload(0x40)\n      0xcf47918100000000000000000000000000000000000000000000000000000000\n      dup2\n      mstore\n      0x04\n      add\n      tag_83\n      swap3\n      swap2\n      swap1\n      tag_75\n      jump\t// in\n    tag_83:\n      mload(0x40)\n      dup1\n      swap2\n      sub\n      swap1\n      revert\n        /* \"contracts/KipuBank.sol\":6571:6644  if (amount > userBalance) revert InsufficientBalance(userBalance, amount) */\n    tag_82:\n        /* \"contracts/KipuBank.sol\":6712:6718  amount */\n      dup2\n        /* \"contracts/KipuBank.sol\":6698:6709  userBalance */\n      dup2\n        /* \"contracts/KipuBank.sol\":6698:6718  userBalance - amount */\n      tag_84\n      swap2\n      swap1\n      tag_85\n      jump\t// in\n    tag_84:\n        /* \"contracts/KipuBank.sol\":6677:6683  vaults */\n      0x01\n        /* \"contracts/KipuBank.sol\":6677:6695  vaults[msg.sender] */\n      0x00\n        /* \"contracts/KipuBank.sol\":6684:6694  msg.sender */\n      caller\n        /* \"contracts/KipuBank.sol\":6677:6695  vaults[msg.sender] */\n      0xffffffffffffffffffffffffffffffffffffffff\n      and\n      0xffffffffffffffffffffffffffffffffffffffff\n      and\n      dup2\n      mstore\n      0x20\n      add\n      swap1\n      dup2\n      mstore\n      0x20\n      add\n      0x00\n      keccak256\n        /* \"contracts/KipuBank.sol\":6677:6718  vaults[msg.sender] = userBalance - amount */\n      dup2\n      swap1\n      sstore\n      pop\n        /* \"contracts/KipuBank.sol\":6749:6755  amount */\n      dup2\n        /* \"contracts/KipuBank.sol\":6729:6745  totalBankBalance */\n      0x00\n      dup1\n        /* \"contracts/KipuBank.sol\":6729:6755  totalBankBalance -= amount */\n      dup3\n      dup3\n      sload\n      tag_86\n      swap2\n      swap1\n      tag_85\n      jump\t// in\n    tag_86:\n      swap3\n      pop\n      pop\n      dup2\n      swap1\n      sstore\n      pop\n        /* \"contracts/KipuBank.sol\":6783:6784  1 */\n      0x01\n        /* \"contracts/KipuBank.sol\":6766:6779  withdrawCount */\n      0x03\n      0x00\n        /* \"contracts/KipuBank.sol\":6766:6784  withdrawCount += 1 */\n      dup3\n      dup3\n      sload\n      tag_87\n      swap2\n      swap1\n      tag_67\n      jump\t// in\n    tag_87:\n      swap3\n      pop\n      pop\n      dup2\n      swap1\n      sstore\n      pop\n        /* \"contracts/KipuBank.sol\":6843:6875  _safeSendETH(msg.sender, amount) */\n      tag_88\n        /* \"contracts/KipuBank.sol\":6856:6866  msg.sender */\n      caller\n        /* \"contracts/KipuBank.sol\":6868:6874  amount */\n      dup4\n        /* \"contracts/KipuBank.sol\":6843:6855  _safeSendETH */\n      tag_89\n        /* \"contracts/KipuBank.sol\":6843:6875  _safeSendETH(msg.sender, amount) */\n      jump\t// in\n    tag_88:\n        /* \"contracts/KipuBank.sol\":6920:6930  msg.sender */\n      caller\n        /* \"contracts/KipuBank.sol\":6911:6959  Withdraw(msg.sender, amount, vaults[msg.sender]) */\n      0xffffffffffffffffffffffffffffffffffffffff\n      and\n      0xf279e6a1f5e320cca91135676d9cb6e44ca8a08c0b88342bcdb1144f6511b568\n        /* \"contracts/KipuBank.sol\":6932:6938  amount */\n      dup4\n        /* \"contracts/KipuBank.sol\":6940:6946  vaults */\n      0x01\n        /* \"contracts/KipuBank.sol\":6940:6958  vaults[msg.sender] */\n      0x00\n        /* \"contracts/KipuBank.sol\":6947:6957  msg.sender */\n      caller\n        /* \"contracts/KipuBank.sol\":6940:6958  vaults[msg.sender] */\n      0xffffffffffffffffffffffffffffffffffffffff\n      and\n      0xffffffffffffffffffffffffffffffffffffffff\n      and\n      dup2\n      mstore\n      0x20\n      add\n      swap1\n      dup2\n      mstore\n      0x20\n      add\n      0x00\n      keccak256\n      sload\n        /* \"contracts/KipuBank.sol\":6911:6959  Withdraw(msg.sender, amount, vaults[msg.sender]) */\n      mload(0x40)\n      tag_90\n      swap3\n      swap2\n      swap1\n      tag_75\n      jump\t// in\n    tag_90:\n      mload(0x40)\n      dup1\n      swap2\n      sub\n      swap1\n      log2\n        /* \"contracts/KipuBank.sol\":6340:6967  {... */\n      pop\n        /* \"contracts/KipuBank.sol\":5032:5033  1 */\n      0x01\n        /* \"contracts/KipuBank.sol\":5022:5029  _locked */\n      0x05\n        /* \"contracts/KipuBank.sol\":5022:5033  _locked = 1 */\n      dup2\n      swap1\n      sstore\n      pop\n        /* \"contracts/KipuBank.sol\":6284:6967  function withdraw(uint256 amount) external nonReentrant {... */\n      pop\n      jump\t// out\n        /* \"contracts/KipuBank.sol\":2939:2993  mapping(address => uint256) public depositCountPerUser */\n    tag_39:\n      mstore(0x20, 0x04)\n      dup1\n      0x00\n      mstore\n      keccak256(0x00, 0x40)\n      0x00\n      swap2\n      pop\n      swap1\n      pop\n      sload\n      dup2\n      jump\t// out\n        /* \"contracts/KipuBank.sol\":2850:2878  uint256 public withdrawCount */\n    tag_43:\n      sload(0x03)\n      dup2\n      jump\t// out\n        /* \"contracts/KipuBank.sol\":2203:2244  uint256 public immutable maxWithdrawPerTx */\n    tag_47:\n      immutable(\"0x2e9b7c94e032d8b3b8b30bd825717a5ac74958b53e7c37a892a4fd7dc56e4975\")\n      dup2\n      jump\t// out\n        /* \"contracts/KipuBank.sol\":7638:7752  function contractBalance() external view returns (uint256 balance) {... */\n    tag_51:\n        /* \"contracts/KipuBank.sol\":7688:7703  uint256 balance */\n      0x00\n        /* \"contracts/KipuBank.sol\":7723:7744  address(this).balance */\n      selfbalance\n        /* \"contracts/KipuBank.sol\":7716:7744  return address(this).balance */\n      swap1\n      pop\n        /* \"contracts/KipuBank.sol\":7638:7752  function contractBalance() external view returns (uint256 balance) {... */\n      swap1\n      jump\t// out\n        /* \"contracts/KipuBank.sol\":6005:6172  function deposit() external payable nonReentrant {... */\n    tag_54:\n        /* \"contracts/KipuBank.sol\":4952:4953  1 */\n      0x01\n        /* \"contracts/KipuBank.sol\":4941:4948  _locked */\n      sload(0x05)\n        /* \"contracts/KipuBank.sol\":4941:4953  _locked != 1 */\n      eq\n        /* \"contracts/KipuBank.sol\":4937:4977  if (_locked != 1) revert ReentrantCall() */\n      tag_93\n      jumpi\n        /* \"contracts/KipuBank.sol\":4962:4977  ReentrantCall() */\n      mload(0x40)\n      0x37ed32e800000000000000000000000000000000000000000000000000000000\n      dup2\n      mstore\n      0x04\n      add\n      mload(0x40)\n      dup1\n      swap2\n      sub\n      swap1\n      revert\n        /* \"contracts/KipuBank.sol\":4937:4977  if (_locked != 1) revert ReentrantCall() */\n    tag_93:\n        /* \"contracts/KipuBank.sol\":4998:4999  2 */\n      0x02\n        /* \"contracts/KipuBank.sol\":4988:4995  _locked */\n      0x05\n        /* \"contracts/KipuBank.sol\":4988:4999  _locked = 2 */\n      dup2\n      swap1\n      sstore\n      pop\n        /* \"contracts/KipuBank.sol\":6133:6164  _deposit(msg.sender, msg.value) */\n      tag_95\n        /* \"contracts/KipuBank.sol\":6142:6152  msg.sender */\n      caller\n        /* \"contracts/KipuBank.sol\":6154:6163  msg.value */\n      callvalue\n        /* \"contracts/KipuBank.sol\":6133:6141  _deposit */\n      tag_17\n        /* \"contracts/KipuBank.sol\":6133:6164  _deposit(msg.sender, msg.value) */\n      jump\t// in\n    tag_95:\n        /* \"contracts/KipuBank.sol\":5032:5033  1 */\n      0x01\n        /* \"contracts/KipuBank.sol\":5022:5029  _locked */\n      0x05\n        /* \"contracts/KipuBank.sol\":5022:5033  _locked = 1 */\n      dup2\n      swap1\n      sstore\n      pop\n        /* \"contracts/KipuBank.sol\":6005:6172  function deposit() external payable nonReentrant {... */\n      jump\t// out\n        /* \"contracts/KipuBank.sol\":7339:7462  function getVaultBalance(address account) external view returns (uint256 balance) {... */\n    tag_58:\n        /* \"contracts/KipuBank.sol\":7404:7419  uint256 balance */\n      0x00\n        /* \"contracts/KipuBank.sol\":7439:7445  vaults */\n      0x01\n        /* \"contracts/KipuBank.sol\":7439:7454  vaults[account] */\n      0x00\n        /* \"contracts/KipuBank.sol\":7446:7453  account */\n      dup4\n        /* \"contracts/KipuBank.sol\":7439:7454  vaults[account] */\n      0xffffffffffffffffffffffffffffffffffffffff\n      and\n      0xffffffffffffffffffffffffffffffffffffffff\n      and\n      dup2\n      mstore\n      0x20\n      add\n      swap1\n      dup2\n      mstore\n      0x20\n      add\n      0x00\n      keccak256\n      sload\n        /* \"contracts/KipuBank.sol\":7432:7454  return vaults[account] */\n      swap1\n      pop\n        /* \"contracts/KipuBank.sol\":7339:7462  function getVaultBalance(address account) external view returns (uint256 balance) {... */\n      swap2\n      swap1\n      pop\n      jump\t// out\n        /* \"contracts/KipuBank.sol\":2081:2113  uint256 public immutable bankCap */\n    tag_62:\n      immutable(\"0x6bcaf047ba4c8ac400fca43393035242dd1aabda2d6068a0c51242b97224de8d\")\n      dup2\n      jump\t// out\n        /* \"contracts/KipuBank.sol\":8943:9269  function _safeSendETH(address to, uint256 amount) private {... */\n    tag_89:\n        /* \"contracts/KipuBank.sol\":9159:9171  bool success */\n      0x00\n        /* \"contracts/KipuBank.sol\":9177:9179  to */\n      dup3\n        /* \"contracts/KipuBank.sol\":9177:9184  to.call */\n      0xffffffffffffffffffffffffffffffffffffffff\n      and\n        /* \"contracts/KipuBank.sol\":9192:9198  amount */\n      dup3\n        /* \"contracts/KipuBank.sol\":9177:9203  to.call{value: amount}(\"\") */\n      mload(0x40)\n      tag_98\n      swap1\n      tag_99\n      jump\t// in\n    tag_98:\n      0x00\n      mload(0x40)\n      dup1\n      dup4\n      sub\n      dup2\n      dup6\n      dup8\n      gas\n      call\n      swap3\n      pop\n      pop\n      pop\n      returndatasize\n      dup1\n      0x00\n      dup2\n      eq\n      tag_102\n      jumpi\n      mload(0x40)\n      swap2\n      pop\n      and(add(returndatasize, 0x3f), not(0x1f))\n      dup3\n      add\n      0x40\n      mstore\n      returndatasize\n      dup3\n      mstore\n      returndatasize\n      0x00\n      0x20\n      dup5\n      add\n      returndatacopy\n      jump(tag_101)\n    tag_102:\n      0x60\n      swap2\n      pop\n    tag_101:\n      pop\n        /* \"contracts/KipuBank.sol\":9158:9203  (bool success, ) = to.call{value: amount}(\"\") */\n      pop\n      swap1\n      pop\n        /* \"contracts/KipuBank.sol\":9219:9226  success */\n      dup1\n        /* \"contracts/KipuBank.sol\":9214:9261  if (!success) revert TransferFailed(to, amount) */\n      tag_103\n      jumpi\n        /* \"contracts/KipuBank.sol\":9250:9252  to */\n      dup3\n        /* \"contracts/KipuBank.sol\":9254:9260  amount */\n      dup3\n        /* \"contracts/KipuBank.sol\":9235:9261  TransferFailed(to, amount) */\n      mload(0x40)\n      0x1c43b97600000000000000000000000000000000000000000000000000000000\n      dup2\n      mstore\n      0x04\n      add\n      tag_104\n      swap3\n      swap2\n      swap1\n      tag_105\n      jump\t// in\n    tag_104:\n      mload(0x40)\n      dup1\n      swap2\n      sub\n      swap1\n      revert\n        /* \"contracts/KipuBank.sol\":9214:9261  if (!success) revert TransferFailed(to, amount) */\n    tag_103:\n        /* \"contracts/KipuBank.sol\":9001:9269  {... */\n      pop\n        /* \"contracts/KipuBank.sol\":8943:9269  function _safeSendETH(address to, uint256 amount) private {... */\n      pop\n      pop\n      jump\t// out\n        /* \"#utility.yul\":7:84   */\n    tag_106:\n        /* \"#utility.yul\":44:51   */\n      0x00\n        /* \"#utility.yul\":73:78   */\n      dup2\n        /* \"#utility.yul\":62:78   */\n      swap1\n      pop\n        /* \"#utility.yul\":7:84   */\n      swap2\n      swap1\n      pop\n      jump\t// out\n        /* \"#utility.yul\":90:208   */\n    tag_107:\n        /* \"#utility.yul\":177:201   */\n      tag_125\n        /* \"#utility.yul\":195:200   */\n      dup2\n        /* \"#utility.yul\":177:201   */\n      tag_106\n      jump\t// in\n    tag_125:\n        /* \"#utility.yul\":172:175   */\n      dup3\n        /* \"#utility.yul\":165:202   */\n      mstore\n        /* \"#utility.yul\":90:208   */\n      pop\n      pop\n      jump\t// out\n        /* \"#utility.yul\":214:436   */\n    tag_25:\n        /* \"#utility.yul\":307:311   */\n      0x00\n        /* \"#utility.yul\":345:347   */\n      0x20\n        /* \"#utility.yul\":334:343   */\n      dup3\n        /* \"#utility.yul\":330:348   */\n      add\n        /* \"#utility.yul\":322:348   */\n      swap1\n      pop\n        /* \"#utility.yul\":358:429   */\n      tag_127\n        /* \"#utility.yul\":426:427   */\n      0x00\n        /* \"#utility.yul\":415:424   */\n      dup4\n        /* \"#utility.yul\":411:428   */\n      add\n        /* \"#utility.yul\":402:408   */\n      dup5\n        /* \"#utility.yul\":358:429   */\n      tag_107\n      jump\t// in\n    tag_127:\n        /* \"#utility.yul\":214:436   */\n      swap3\n      swap2\n      pop\n      pop\n      jump\t// out\n        /* \"#utility.yul\":523:640   */\n    tag_109:\n        /* \"#utility.yul\":632:633   */\n      0x00\n        /* \"#utility.yul\":629:630   */\n      dup1\n        /* \"#utility.yul\":622:634   */\n      revert\n        /* \"#utility.yul\":769:891   */\n    tag_111:\n        /* \"#utility.yul\":842:866   */\n      tag_132\n        /* \"#utility.yul\":860:865   */\n      dup2\n        /* \"#utility.yul\":842:866   */\n      tag_106\n      jump\t// in\n    tag_132:\n        /* \"#utility.yul\":835:840   */\n      dup2\n        /* \"#utility.yul\":832:867   */\n      eq\n        /* \"#utility.yul\":822:885   */\n      tag_133\n      jumpi\n        /* \"#utility.yul\":881:882   */\n      0x00\n        /* \"#utility.yul\":878:879   */\n      dup1\n        /* \"#utility.yul\":871:883   */\n      revert\n        /* \"#utility.yul\":822:885   */\n    tag_133:\n        /* \"#utility.yul\":769:891   */\n      pop\n      jump\t// out\n        /* \"#utility.yul\":897:1036   */\n    tag_112:\n        /* \"#utility.yul\":943:948   */\n      0x00\n        /* \"#utility.yul\":981:987   */\n      dup2\n        /* \"#utility.yul\":968:988   */\n      calldataload\n        /* \"#utility.yul\":959:988   */\n      swap1\n      pop\n        /* \"#utility.yul\":997:1030   */\n      tag_135\n        /* \"#utility.yul\":1024:1029   */\n      dup2\n        /* \"#utility.yul\":997:1030   */\n      tag_111\n      jump\t// in\n    tag_135:\n        /* \"#utility.yul\":897:1036   */\n      swap3\n      swap2\n      pop\n      pop\n      jump\t// out\n        /* \"#utility.yul\":1042:1371   */\n    tag_33:\n        /* \"#utility.yul\":1101:1107   */\n      0x00\n        /* \"#utility.yul\":1150:1152   */\n      0x20\n        /* \"#utility.yul\":1138:1147   */\n      dup3\n        /* \"#utility.yul\":1129:1136   */\n      dup5\n        /* \"#utility.yul\":1125:1148   */\n      sub\n        /* \"#utility.yul\":1121:1153   */\n      slt\n        /* \"#utility.yul\":1118:1237   */\n      iszero\n      tag_137\n      jumpi\n        /* \"#utility.yul\":1156:1235   */\n      tag_138\n      tag_109\n      jump\t// in\n    tag_138:\n        /* \"#utility.yul\":1118:1237   */\n    tag_137:\n        /* \"#utility.yul\":1276:1277   */\n      0x00\n        /* \"#utility.yul\":1301:1354   */\n      tag_139\n        /* \"#utility.yul\":1346:1353   */\n      dup5\n        /* \"#utility.yul\":1337:1343   */\n      dup3\n        /* \"#utility.yul\":1326:1335   */\n      dup6\n        /* \"#utility.yul\":1322:1344   */\n      add\n        /* \"#utility.yul\":1301:1354   */\n      tag_112\n      jump\t// in\n    tag_139:\n        /* \"#utility.yul\":1291:1354   */\n      swap2\n      pop\n        /* \"#utility.yul\":1247:1364   */\n      pop\n        /* \"#utility.yul\":1042:1371   */\n      swap3\n      swap2\n      pop\n      pop\n      jump\t// out\n        /* \"#utility.yul\":1377:1503   */\n    tag_113:\n        /* \"#utility.yul\":1414:1421   */\n      0x00\n        /* \"#utility.yul\":1454:1496   */\n      0xffffffffffffffffffffffffffffffffffffffff\n        /* \"#utility.yul\":1447:1452   */\n      dup3\n        /* \"#utility.yul\":1443:1497   */\n      and\n        /* \"#utility.yul\":1432:1497   */\n      swap1\n      pop\n        /* \"#utility.yul\":1377:1503   */\n      swap2\n      swap1\n      pop\n      jump\t// out\n        /* \"#utility.yul\":1509:1605   */\n    tag_114:\n        /* \"#utility.yul\":1546:1553   */\n      0x00\n        /* \"#utility.yul\":1575:1599   */\n      tag_142\n        /* \"#utility.yul\":1593:1598   */\n      dup3\n        /* \"#utility.yul\":1575:1599   */\n      tag_113\n      jump\t// in\n    tag_142:\n        /* \"#utility.yul\":1564:1599   */\n      swap1\n      pop\n        /* \"#utility.yul\":1509:1605   */\n      swap2\n      swap1\n      pop\n      jump\t// out\n        /* \"#utility.yul\":1611:1733   */\n    tag_115:\n        /* \"#utility.yul\":1684:1708   */\n      tag_144\n        /* \"#utility.yul\":1702:1707   */\n      dup2\n        /* \"#utility.yul\":1684:1708   */\n      tag_114\n      jump\t// in\n    tag_144:\n        /* \"#utility.yul\":1677:1682   */\n      dup2\n        /* \"#utility.yul\":1674:1709   */\n      eq\n        /* \"#utility.yul\":1664:1727   */\n      tag_145\n      jumpi\n        /* \"#utility.yul\":1723:1724   */\n      0x00\n        /* \"#utility.yul\":1720:1721   */\n      dup1\n        /* \"#utility.yul\":1713:1725   */\n      revert\n        /* \"#utility.yul\":1664:1727   */\n    tag_145:\n        /* \"#utility.yul\":1611:1733   */\n      pop\n      jump\t// out\n        /* \"#utility.yul\":1739:1878   */\n    tag_116:\n        /* \"#utility.yul\":1785:1790   */\n      0x00\n        /* \"#utility.yul\":1823:1829   */\n      dup2\n        /* \"#utility.yul\":1810:1830   */\n      calldataload\n        /* \"#utility.yul\":1801:1830   */\n      swap1\n      pop\n        /* \"#utility.yul\":1839:1872   */\n      tag_147\n        /* \"#utility.yul\":1866:1871   */\n      dup2\n        /* \"#utility.yul\":1839:1872   */\n      tag_115\n      jump\t// in\n    tag_147:\n        /* \"#utility.yul\":1739:1878   */\n      swap3\n      swap2\n      pop\n      pop\n      jump\t// out\n        /* \"#utility.yul\":1884:2213   */\n    tag_38:\n        /* \"#utility.yul\":1943:1949   */\n      0x00\n        /* \"#utility.yul\":1992:1994   */\n      0x20\n        /* \"#utility.yul\":1980:1989   */\n      dup3\n        /* \"#utility.yul\":1971:1978   */\n      dup5\n        /* \"#utility.yul\":1967:1990   */\n      sub\n        /* \"#utility.yul\":1963:1995   */\n      slt\n        /* \"#utility.yul\":1960:2079   */\n      iszero\n      tag_149\n      jumpi\n        /* \"#utility.yul\":1998:2077   */\n      tag_150\n      tag_109\n      jump\t// in\n    tag_150:\n        /* \"#utility.yul\":1960:2079   */\n    tag_149:\n        /* \"#utility.yul\":2118:2119   */\n      0x00\n        /* \"#utility.yul\":2143:2196   */\n      tag_151\n        /* \"#utility.yul\":2188:2195   */\n      dup5\n        /* \"#utility.yul\":2179:2185   */\n      dup3\n        /* \"#utility.yul\":2168:2177   */\n      dup6\n        /* \"#utility.yul\":2164:2186   */\n      add\n        /* \"#utility.yul\":2143:2196   */\n      tag_116\n      jump\t// in\n    tag_151:\n        /* \"#utility.yul\":2133:2196   */\n      swap2\n      pop\n        /* \"#utility.yul\":2089:2206   */\n      pop\n        /* \"#utility.yul\":1884:2213   */\n      swap3\n      swap2\n      pop\n      pop\n      jump\t// out\n        /* \"#utility.yul\":2219:2399   */\n    tag_117:\n        /* \"#utility.yul\":2267:2344   */\n      0x4e487b7100000000000000000000000000000000000000000000000000000000\n        /* \"#utility.yul\":2264:2265   */\n      0x00\n        /* \"#utility.yul\":2257:2345   */\n      mstore\n        /* \"#utility.yul\":2364:2368   */\n      0x11\n        /* \"#utility.yul\":2361:2362   */\n      0x04\n        /* \"#utility.yul\":2354:2369   */\n      mstore\n        /* \"#utility.yul\":2388:2392   */\n      0x24\n        /* \"#utility.yul\":2385:2386   */\n      0x00\n        /* \"#utility.yul\":2378:2393   */\n      revert\n        /* \"#utility.yul\":2405:2596   */\n    tag_67:\n        /* \"#utility.yul\":2445:2448   */\n      0x00\n        /* \"#utility.yul\":2464:2484   */\n      tag_154\n        /* \"#utility.yul\":2482:2483   */\n      dup3\n        /* \"#utility.yul\":2464:2484   */\n      tag_106\n      jump\t// in\n    tag_154:\n        /* \"#utility.yul\":2459:2484   */\n      swap2\n      pop\n        /* \"#utility.yul\":2498:2518   */\n      tag_155\n        /* \"#utility.yul\":2516:2517   */\n      dup4\n        /* \"#utility.yul\":2498:2518   */\n      tag_106\n      jump\t// in\n    tag_155:\n        /* \"#utility.yul\":2493:2518   */\n      swap3\n      pop\n        /* \"#utility.yul\":2541:2542   */\n      dup3\n        /* \"#utility.yul\":2538:2539   */\n      dup3\n        /* \"#utility.yul\":2534:2543   */\n      add\n        /* \"#utility.yul\":2527:2543   */\n      swap1\n      pop\n        /* \"#utility.yul\":2562:2565   */\n      dup1\n        /* \"#utility.yul\":2559:2560   */\n      dup3\n        /* \"#utility.yul\":2556:2566   */\n      gt\n        /* \"#utility.yul\":2553:2589   */\n      iszero\n      tag_156\n      jumpi\n        /* \"#utility.yul\":2569:2587   */\n      tag_157\n      tag_117\n      jump\t// in\n    tag_157:\n        /* \"#utility.yul\":2553:2589   */\n    tag_156:\n        /* \"#utility.yul\":2405:2596   */\n      swap3\n      swap2\n      pop\n      pop\n      jump\t// out\n        /* \"#utility.yul\":2602:3044   */\n    tag_70:\n        /* \"#utility.yul\":2751:2755   */\n      0x00\n        /* \"#utility.yul\":2789:2791   */\n      0x60\n        /* \"#utility.yul\":2778:2787   */\n      dup3\n        /* \"#utility.yul\":2774:2792   */\n      add\n        /* \"#utility.yul\":2766:2792   */\n      swap1\n      pop\n        /* \"#utility.yul\":2802:2873   */\n      tag_159\n        /* \"#utility.yul\":2870:2871   */\n      0x00\n        /* \"#utility.yul\":2859:2868   */\n      dup4\n        /* \"#utility.yul\":2855:2872   */\n      add\n        /* \"#utility.yul\":2846:2852   */\n      dup7\n        /* \"#utility.yul\":2802:2873   */\n      tag_107\n      jump\t// in\n    tag_159:\n        /* \"#utility.yul\":2883:2955   */\n      tag_160\n        /* \"#utility.yul\":2951:2953   */\n      0x20\n        /* \"#utility.yul\":2940:2949   */\n      dup4\n        /* \"#utility.yul\":2936:2954   */\n      add\n        /* \"#utility.yul\":2927:2933   */\n      dup6\n        /* \"#utility.yul\":2883:2955   */\n      tag_107\n      jump\t// in\n    tag_160:\n        /* \"#utility.yul\":2965:3037   */\n      tag_161\n        /* \"#utility.yul\":3033:3035   */\n      0x40\n        /* \"#utility.yul\":3022:3031   */\n      dup4\n        /* \"#utility.yul\":3018:3036   */\n      add\n        /* \"#utility.yul\":3009:3015   */\n      dup5\n        /* \"#utility.yul\":2965:3037   */\n      tag_107\n      jump\t// in\n    tag_161:\n        /* \"#utility.yul\":2602:3044   */\n      swap5\n      swap4\n      pop\n      pop\n      pop\n      pop\n      jump\t// out\n        /* \"#utility.yul\":3050:3382   */\n    tag_75:\n        /* \"#utility.yul\":3171:3175   */\n      0x00\n        /* \"#utility.yul\":3209:3211   */\n      0x40\n        /* \"#utility.yul\":3198:3207   */\n      dup3\n        /* \"#utility.yul\":3194:3212   */\n      add\n        /* \"#utility.yul\":3186:3212   */\n      swap1\n      pop\n        /* \"#utility.yul\":3222:3293   */\n      tag_163\n        /* \"#utility.yul\":3290:3291   */\n      0x00\n        /* \"#utility.yul\":3279:3288   */\n      dup4\n        /* \"#utility.yul\":3275:3292   */\n      add\n        /* \"#utility.yul\":3266:3272   */\n      dup6\n        /* \"#utility.yul\":3222:3293   */\n      tag_107\n      jump\t// in\n    tag_163:\n        /* \"#utility.yul\":3303:3375   */\n      tag_164\n        /* \"#utility.yul\":3371:3373   */\n      0x20\n        /* \"#utility.yul\":3360:3369   */\n      dup4\n        /* \"#utility.yul\":3356:3374   */\n      add\n        /* \"#utility.yul\":3347:3353   */\n      dup5\n        /* \"#utility.yul\":3303:3375   */\n      tag_107\n      jump\t// in\n    tag_164:\n        /* \"#utility.yul\":3050:3382   */\n      swap4\n      swap3\n      pop\n      pop\n      pop\n      jump\t// out\n        /* \"#utility.yul\":3388:3582   */\n    tag_85:\n        /* \"#utility.yul\":3428:3432   */\n      0x00\n        /* \"#utility.yul\":3448:3468   */\n      tag_166\n        /* \"#utility.yul\":3466:3467   */\n      dup3\n        /* \"#utility.yul\":3448:3468   */\n      tag_106\n      jump\t// in\n    tag_166:\n        /* \"#utility.yul\":3443:3468   */\n      swap2\n      pop\n        /* \"#utility.yul\":3482:3502   */\n      tag_167\n        /* \"#utility.yul\":3500:3501   */\n      dup4\n        /* \"#utility.yul\":3482:3502   */\n      tag_106\n      jump\t// in\n    tag_167:\n        /* \"#utility.yul\":3477:3502   */\n      swap3\n      pop\n        /* \"#utility.yul\":3526:3527   */\n      dup3\n        /* \"#utility.yul\":3523:3524   */\n      dup3\n        /* \"#utility.yul\":3519:3528   */\n      sub\n        /* \"#utility.yul\":3511:3528   */\n      swap1\n      pop\n        /* \"#utility.yul\":3550:3551   */\n      dup2\n        /* \"#utility.yul\":3544:3548   */\n      dup2\n        /* \"#utility.yul\":3541:3552   */\n      gt\n        /* \"#utility.yul\":3538:3575   */\n      iszero\n      tag_168\n      jumpi\n        /* \"#utility.yul\":3555:3573   */\n      tag_169\n      tag_117\n      jump\t// in\n    tag_169:\n        /* \"#utility.yul\":3538:3575   */\n    tag_168:\n        /* \"#utility.yul\":3388:3582   */\n      swap3\n      swap2\n      pop\n      pop\n      jump\t// out\n        /* \"#utility.yul\":3588:3735   */\n    tag_118:\n        /* \"#utility.yul\":3689:3700   */\n      0x00\n        /* \"#utility.yul\":3726:3729   */\n      dup2\n        /* \"#utility.yul\":3711:3729   */\n      swap1\n      pop\n        /* \"#utility.yul\":3588:3735   */\n      swap3\n      swap2\n      pop\n      pop\n      jump\t// out\n        /* \"#utility.yul\":3741:3855   */\n    tag_119:\n      pop\n      jump\t// out\n        /* \"#utility.yul\":3861:4259   */\n    tag_120:\n        /* \"#utility.yul\":4020:4023   */\n      0x00\n        /* \"#utility.yul\":4041:4124   */\n      tag_173\n        /* \"#utility.yul\":4122:4123   */\n      0x00\n        /* \"#utility.yul\":4117:4120   */\n      dup4\n        /* \"#utility.yul\":4041:4124   */\n      tag_118\n      jump\t// in\n    tag_173:\n        /* \"#utility.yul\":4034:4124   */\n      swap2\n      pop\n        /* \"#utility.yul\":4133:4226   */\n      tag_174\n        /* \"#utility.yul\":4222:4225   */\n      dup3\n        /* \"#utility.yul\":4133:4226   */\n      tag_119\n      jump\t// in\n    tag_174:\n        /* \"#utility.yul\":4251:4252   */\n      0x00\n        /* \"#utility.yul\":4246:4249   */\n      dup3\n        /* \"#utility.yul\":4242:4253   */\n      add\n        /* \"#utility.yul\":4235:4253   */\n      swap1\n      pop\n        /* \"#utility.yul\":3861:4259   */\n      swap2\n      swap1\n      pop\n      jump\t// out\n        /* \"#utility.yul\":4265:4644   */\n    tag_99:\n        /* \"#utility.yul\":4449:4452   */\n      0x00\n        /* \"#utility.yul\":4471:4618   */\n      tag_176\n        /* \"#utility.yul\":4614:4617   */\n      dup3\n        /* \"#utility.yul\":4471:4618   */\n      tag_120\n      jump\t// in\n    tag_176:\n        /* \"#utility.yul\":4464:4618   */\n      swap2\n      pop\n        /* \"#utility.yul\":4635:4638   */\n      dup2\n        /* \"#utility.yul\":4628:4638   */\n      swap1\n      pop\n        /* \"#utility.yul\":4265:4644   */\n      swap2\n      swap1\n      pop\n      jump\t// out\n        /* \"#utility.yul\":4650:4768   */\n    tag_121:\n        /* \"#utility.yul\":4737:4761   */\n      tag_178\n        /* \"#utility.yul\":4755:4760   */\n      dup2\n        /* \"#utility.yul\":4737:4761   */\n      tag_114\n      jump\t// in\n    tag_178:\n        /* \"#utility.yul\":4732:4735   */\n      dup3\n        /* \"#utility.yul\":4725:4762   */\n      mstore\n        /* \"#utility.yul\":4650:4768   */\n      pop\n      pop\n      jump\t// out\n        /* \"#utility.yul\":4774:5106   */\n    tag_105:\n        /* \"#utility.yul\":4895:4899   */\n      0x00\n        /* \"#utility.yul\":4933:4935   */\n      0x40\n        /* \"#utility.yul\":4922:4931   */\n      dup3\n        /* \"#utility.yul\":4918:4936   */\n      add\n        /* \"#utility.yul\":4910:4936   */\n      swap1\n      pop\n        /* \"#utility.yul\":4946:5017   */\n      tag_180\n        /* \"#utility.yul\":5014:5015   */\n      0x00\n        /* \"#utility.yul\":5003:5012   */\n      dup4\n        /* \"#utility.yul\":4999:5016   */\n      add\n        /* \"#utility.yul\":4990:4996   */\n      dup6\n        /* \"#utility.yul\":4946:5017   */\n      tag_121\n      jump\t// in\n    tag_180:\n        /* \"#utility.yul\":5027:5099   */\n      tag_181\n        /* \"#utility.yul\":5095:5097   */\n      0x20\n        /* \"#utility.yul\":5084:5093   */\n      dup4\n        /* \"#utility.yul\":5080:5098   */\n      add\n        /* \"#utility.yul\":5071:5077   */\n      dup5\n        /* \"#utility.yul\":5027:5099   */\n      tag_107\n      jump\t// in\n    tag_181:\n        /* \"#utility.yul\":4774:5106   */\n      swap4\n      swap3\n      pop\n      pop\n      pop\n      jump\t// out\n\n    auxdata: 0xa26469706673582212203932234c988e54e48d3a6d4e86a915a21ea2b402a044cad2791a6c0cb04123cb64736f6c63430008140033\n}\n",
				"bytecode": {
					"linkReferences": {},
					"object": "60c06040526001600555348015610014575f80fd5b50604051610ce0380380610ce0833981810160405281019061003691906100c8565b5f82148061004357505f81145b1561007a576040517f9cf8540c00000000000000000000000000000000000000000000000000000000815260040160405180910390fd5b81608081815250508060a081815250505050610106565b5f80fd5b5f819050919050565b6100a781610095565b81146100b1575f80fd5b50565b5f815190506100c28161009e565b92915050565b5f80604083850312156100de576100dd610091565b5b5f6100eb858286016100b4565b92505060206100fc858286016100b4565b9150509250929050565b60805160a051610b9d6101435f395f818161050c01528181610534015261075601525f81816102a2015281816102ca015261081f0152610b9d5ff3fe608060405260043610610094575f3560e01c80635d926ced116100585780635d926ced146101935780638b7afe2e146101bd578063d0e30db0146101e7578063d3d7c002146101f1578063ecbea24d1461022d576100a5565b80631977e938146100b15780632dfdf0b5146100db5780632e1a7d4d14610105578063390d3f621461012d5780634cc05a7114610169576100a5565b366100a5576100a33334610257565b005b6100af3334610257565b005b3480156100bc575f80fd5b506100c5610482565b6040516100d2919061090a565b60405180910390f35b3480156100e6575f80fd5b506100ef610487565b6040516100fc919061090a565b60405180910390f35b348015610110575f80fd5b5061012b60048036038101906101269190610951565b61048d565b005b348015610138575f80fd5b50610153600480360381019061014e91906109d6565b610739565b604051610160919061090a565b60405180910390f35b348015610174575f80fd5b5061017d61074e565b60405161018a919061090a565b60405180910390f35b34801561019e575f80fd5b506101a7610754565b6040516101b4919061090a565b60405180910390f35b3480156101c8575f80fd5b506101d1610778565b6040516101de919061090a565b60405180910390f35b6101ef61077f565b005b3480156101fc575f80fd5b50610217600480360381019061021291906109d6565b6107d7565b604051610224919061090a565b60405180910390f35b348015610238575f80fd5b5061024161081d565b60405161024e919061090a565b60405180910390f35b5f8103610290576040517f9cf8540c00000000000000000000000000000000000000000000000000000000815260040160405180910390fd5b5f815f5461029e9190610a2e565b90507f000000000000000000000000000000000000000000000000000000000000000081111561032a577f0000000000000000000000000000000000000000000000000000000000000000825f546040517f621e5a6900000000000000000000000000000000000000000000000000000000815260040161032193929190610a61565b60405180910390fd5b8160015f8573ffffffffffffffffffffffffffffffffffffffff1673ffffffffffffffffffffffffffffffffffffffff1681526020019081526020015f205f8282546103769190610a2e565b92505081905550805f81905550600160025f8282546103959190610a2e565b92505081905550600160045f8573ffffffffffffffffffffffffffffffffffffffff1673ffffffffffffffffffffffffffffffffffffffff1681526020019081526020015f205f8282546103e99190610a2e565b925050819055508273ffffffffffffffffffffffffffffffffffffffff167f90890809c654f11d6e72a28fa60149770a0d11ec6c92319d6ceb2bb0a4ea1a158360015f8773ffffffffffffffffffffffffffffffffffffffff1673ffffffffffffffffffffffffffffffffffffffff1681526020019081526020015f2054604051610475929190610a96565b60405180910390a2505050565b5f5481565b60025481565b6001600554146104c9576040517f37ed32e800000000000000000000000000000000000000000000000000000000815260040160405180910390fd5b60026005819055505f810361050a576040517f9cf8540c00000000000000000000000000000000000000000000000000000000815260040160405180910390fd5b7f0000000000000000000000000000000000000000000000000000000000000000811115610591577f0000000000000000000000000000000000000000000000000000000000000000816040517fd1e6b2fa000000000000000000000000000000000000000000000000000000008152600401610588929190610a96565b60405180910390fd5b5f60015f3373ffffffffffffffffffffffffffffffffffffffff1673ffffffffffffffffffffffffffffffffffffffff1681526020019081526020015f20549050808211156106195780826040517fcf479181000000000000000000000000000000000000000000000000000000008152600401610610929190610a96565b60405180910390fd5b81816106259190610abd565b60015f3373ffffffffffffffffffffffffffffffffffffffff1673ffffffffffffffffffffffffffffffffffffffff1681526020019081526020015f2081905550815f808282546106769190610abd565b92505081905550600160035f82825461068f9190610a2e565b925050819055506106a03383610841565b3373ffffffffffffffffffffffffffffffffffffffff167ff279e6a1f5e320cca91135676d9cb6e44ca8a08c0b88342bcdb1144f6511b5688360015f3373ffffffffffffffffffffffffffffffffffffffff1673ffffffffffffffffffffffffffffffffffffffff1681526020019081526020015f2054604051610725929190610a96565b60405180910390a250600160058190555050565b6004602052805f5260405f205f915090505481565b60035481565b7f000000000000000000000000000000000000000000000000000000000000000081565b5f47905090565b6001600554146107bb576040517f37ed32e800000000000000000000000000000000000000000000000000000000815260040160405180910390fd5b60026005819055506107cd3334610257565b6001600581905550565b5f60015f8373ffffffffffffffffffffffffffffffffffffffff1673ffffffffffffffffffffffffffffffffffffffff1681526020019081526020015f20549050919050565b7f000000000000000000000000000000000000000000000000000000000000000081565b5f8273ffffffffffffffffffffffffffffffffffffffff168260405161086690610b1d565b5f6040518083038185875af1925050503d805f81146108a0576040519150601f19603f3d011682016040523d82523d5f602084013e6108a5565b606091505b50509050806108ed5782826040517f1c43b9760000000000000000000000000000000000000000000000000000000081526004016108e4929190610b40565b60405180910390fd5b505050565b5f819050919050565b610904816108f2565b82525050565b5f60208201905061091d5f8301846108fb565b92915050565b5f80fd5b610930816108f2565b811461093a575f80fd5b50565b5f8135905061094b81610927565b92915050565b5f6020828403121561096657610965610923565b5b5f6109738482850161093d565b91505092915050565b5f73ffffffffffffffffffffffffffffffffffffffff82169050919050565b5f6109a58261097c565b9050919050565b6109b58161099b565b81146109bf575f80fd5b50565b5f813590506109d0816109ac565b92915050565b5f602082840312156109eb576109ea610923565b5b5f6109f8848285016109c2565b91505092915050565b7f4e487b71000000000000000000000000000000000000000000000000000000005f52601160045260245ffd5b5f610a38826108f2565b9150610a43836108f2565b9250828201905080821115610a5b57610a5a610a01565b5b92915050565b5f606082019050610a745f8301866108fb565b610a8160208301856108fb565b610a8e60408301846108fb565b949350505050565b5f604082019050610aa95f8301856108fb565b610ab660208301846108fb565b9392505050565b5f610ac7826108f2565b9150610ad2836108f2565b9250828203905081811115610aea57610ae9610a01565b5b92915050565b5f81905092915050565b50565b5f610b085f83610af0565b9150610b1382610afa565b5f82019050919050565b5f610b2782610afd565b9150819050919050565b610b3a8161099b565b82525050565b5f604082019050610b535f830185610b31565b610b6060208301846108fb565b939250505056fea26469706673582212203932234c988e54e48d3a6d4e86a915a21ea2b402a044cad2791a6c0cb04123cb64736f6c63430008140033",
					"opcodes": "PUSH1 0xC0 PUSH1 0x40 MSTORE PUSH1 0x1 PUSH1 0x5 SSTORE CALLVALUE DUP1 ISZERO PUSH2 0x14 JUMPI PUSH0 DUP1 REVERT JUMPDEST POP PUSH1 0x40 MLOAD PUSH2 0xCE0 CODESIZE SUB DUP1 PUSH2 0xCE0 DUP4 CODECOPY DUP2 DUP2 ADD PUSH1 0x40 MSTORE DUP2 ADD SWAP1 PUSH2 0x36 SWAP2 SWAP1 PUSH2 0xC8 JUMP JUMPDEST PUSH0 DUP3 EQ DUP1 PUSH2 0x43 JUMPI POP PUSH0 DUP2 EQ JUMPDEST ISZERO PUSH2 0x7A JUMPI PUSH1 0x40 MLOAD PUSH32 0x9CF8540C00000000000000000000000000000000000000000000000000000000 DUP2 MSTORE PUSH1 0x4 ADD PUSH1 0x40 MLOAD DUP1 SWAP2 SUB SWAP1 REVERT JUMPDEST DUP2 PUSH1 0x80 DUP2 DUP2 MSTORE POP POP DUP1 PUSH1 0xA0 DUP2 DUP2 MSTORE POP POP POP POP PUSH2 0x106 JUMP JUMPDEST PUSH0 DUP1 REVERT JUMPDEST PUSH0 DUP2 SWAP1 POP SWAP2 SWAP1 POP JUMP JUMPDEST PUSH2 0xA7 DUP2 PUSH2 0x95 JUMP JUMPDEST DUP2 EQ PUSH2 0xB1 JUMPI PUSH0 DUP1 REVERT JUMPDEST POP JUMP JUMPDEST PUSH0 DUP2 MLOAD SWAP1 POP PUSH2 0xC2 DUP2 PUSH2 0x9E JUMP JUMPDEST SWAP3 SWAP2 POP POP JUMP JUMPDEST PUSH0 DUP1 PUSH1 0x40 DUP4 DUP6 SUB SLT ISZERO PUSH2 0xDE JUMPI PUSH2 0xDD PUSH2 0x91 JUMP JUMPDEST JUMPDEST PUSH0 PUSH2 0xEB DUP6 DUP3 DUP7 ADD PUSH2 0xB4 JUMP JUMPDEST SWAP3 POP POP PUSH1 0x20 PUSH2 0xFC DUP6 DUP3 DUP7 ADD PUSH2 0xB4 JUMP JUMPDEST SWAP2 POP POP SWAP3 POP SWAP3 SWAP1 POP JUMP JUMPDEST PUSH1 0x80 MLOAD PUSH1 0xA0 MLOAD PUSH2 0xB9D PUSH2 0x143 PUSH0 CODECOPY PUSH0 DUP2 DUP2 PUSH2 0x50C ADD MSTORE DUP2 DUP2 PUSH2 0x534 ADD MSTORE PUSH2 0x756 ADD MSTORE PUSH0 DUP2 DUP2 PUSH2 0x2A2 ADD MSTORE DUP2 DUP2 PUSH2 0x2CA ADD MSTORE PUSH2 0x81F ADD MSTORE PUSH2 0xB9D PUSH0 RETURN INVALID PUSH1 0x80 PUSH1 0x40 MSTORE PUSH1 0x4 CALLDATASIZE LT PUSH2 0x94 JUMPI PUSH0 CALLDATALOAD PUSH1 0xE0 SHR DUP1 PUSH4 0x5D926CED GT PUSH2 0x58 JUMPI DUP1 PUSH4 0x5D926CED EQ PUSH2 0x193 JUMPI DUP1 PUSH4 0x8B7AFE2E EQ PUSH2 0x1BD JUMPI DUP1 PUSH4 0xD0E30DB0 EQ PUSH2 0x1E7 JUMPI DUP1 PUSH4 0xD3D7C002 EQ PUSH2 0x1F1 JUMPI DUP1 PUSH4 0xECBEA24D EQ PUSH2 0x22D JUMPI PUSH2 0xA5 JUMP JUMPDEST DUP1 PUSH4 0x1977E938 EQ PUSH2 0xB1 JUMPI DUP1 PUSH4 0x2DFDF0B5 EQ PUSH2 0xDB JUMPI DUP1 PUSH4 0x2E1A7D4D EQ PUSH2 0x105 JUMPI DUP1 PUSH4 0x390D3F62 EQ PUSH2 0x12D JUMPI DUP1 PUSH4 0x4CC05A71 EQ PUSH2 0x169 JUMPI PUSH2 0xA5 JUMP JUMPDEST CALLDATASIZE PUSH2 0xA5 JUMPI PUSH2 0xA3 CALLER CALLVALUE PUSH2 0x257 JUMP JUMPDEST STOP JUMPDEST PUSH2 0xAF CALLER CALLVALUE PUSH2 0x257 JUMP JUMPDEST STOP JUMPDEST CALLVALUE DUP1 ISZERO PUSH2 0xBC JUMPI PUSH0 DUP1 REVERT JUMPDEST POP PUSH2 0xC5 PUSH2 0x482 JUMP JUMPDEST PUSH1 0x40 MLOAD PUSH2 0xD2 SWAP2 SWAP1 PUSH2 0x90A JUMP JUMPDEST PUSH1 0x40 MLOAD DUP1 SWAP2 SUB SWAP1 RETURN JUMPDEST CALLVALUE DUP1 ISZERO PUSH2 0xE6 JUMPI PUSH0 DUP1 REVERT JUMPDEST POP PUSH2 0xEF PUSH2 0x487 JUMP JUMPDEST PUSH1 0x40 MLOAD PUSH2 0xFC SWAP2 SWAP1 PUSH2 0x90A JUMP JUMPDEST PUSH1 0x40 MLOAD DUP1 SWAP2 SUB SWAP1 RETURN JUMPDEST CALLVALUE DUP1 ISZERO PUSH2 0x110 JUMPI PUSH0 DUP1 REVERT JUMPDEST POP PUSH2 0x12B PUSH1 0x4 DUP1 CALLDATASIZE SUB DUP2 ADD SWAP1 PUSH2 0x126 SWAP2 SWAP1 PUSH2 0x951 JUMP JUMPDEST PUSH2 0x48D JUMP JUMPDEST STOP JUMPDEST CALLVALUE DUP1 ISZERO PUSH2 0x138 JUMPI PUSH0 DUP1 REVERT JUMPDEST POP PUSH2 0x153 PUSH1 0x4 DUP1 CALLDATASIZE SUB DUP2 ADD SWAP1 PUSH2 0x14E SWAP2 SWAP1 PUSH2 0x9D6 JUMP JUMPDEST PUSH2 0x739 JUMP JUMPDEST PUSH1 0x40 MLOAD PUSH2 0x160 SWAP2 SWAP1 PUSH2 0x90A JUMP JUMPDEST PUSH1 0x40 MLOAD DUP1 SWAP2 SUB SWAP1 RETURN JUMPDEST CALLVALUE DUP1 ISZERO PUSH2 0x174 JUMPI PUSH0 DUP1 REVERT JUMPDEST POP PUSH2 0x17D PUSH2 0x74E JUMP JUMPDEST PUSH1 0x40 MLOAD PUSH2 0x18A SWAP2 SWAP1 PUSH2 0x90A JUMP JUMPDEST PUSH1 0x40 MLOAD DUP1 SWAP2 SUB SWAP1 RETURN JUMPDEST CALLVALUE DUP1 ISZERO PUSH2 0x19E JUMPI PUSH0 DUP1 REVERT JUMPDEST POP PUSH2 0x1A7 PUSH2 0x754 JUMP JUMPDEST PUSH1 0x40 MLOAD PUSH2 0x1B4 SWAP2 SWAP1 PUSH2 0x90A JUMP JUMPDEST PUSH1 0x40 MLOAD DUP1 SWAP2 SUB SWAP1 RETURN JUMPDEST CALLVALUE DUP1 ISZERO PUSH2 0x1C8 JUMPI PUSH0 DUP1 REVERT JUMPDEST POP PUSH2 0x1D1 PUSH2 0x778 JUMP JUMPDEST PUSH1 0x40 MLOAD PUSH2 0x1DE SWAP2 SWAP1 PUSH2 0x90A JUMP JUMPDEST PUSH1 0x40 MLOAD DUP1 SWAP2 SUB SWAP1 RETURN JUMPDEST PUSH2 0x1EF PUSH2 0x77F JUMP JUMPDEST STOP JUMPDEST CALLVALUE DUP1 ISZERO PUSH2 0x1FC JUMPI PUSH0 DUP1 REVERT JUMPDEST POP PUSH2 0x217 PUSH1 0x4 DUP1 CALLDATASIZE SUB DUP2 ADD SWAP1 PUSH2 0x212 SWAP2 SWAP1 PUSH2 0x9D6 JUMP JUMPDEST PUSH2 0x7D7 JUMP JUMPDEST PUSH1 0x40 MLOAD PUSH2 0x224 SWAP2 SWAP1 PUSH2 0x90A JUMP JUMPDEST PUSH1 0x40 MLOAD DUP1 SWAP2 SUB SWAP1 RETURN JUMPDEST CALLVALUE DUP1 ISZERO PUSH2 0x238 JUMPI PUSH0 DUP1 REVERT JUMPDEST POP PUSH2 0x241 PUSH2 0x81D JUMP JUMPDEST PUSH1 0x40 MLOAD PUSH2 0x24E SWAP2 SWAP1 PUSH2 0x90A JUMP JUMPDEST PUSH1 0x40 MLOAD DUP1 SWAP2 SUB SWAP1 RETURN JUMPDEST PUSH0 DUP2 SUB PUSH2 0x290 JUMPI PUSH1 0x40 MLOAD PUSH32 0x9CF8540C00000000000000000000000000000000000000000000000000000000 DUP2 MSTORE PUSH1 0x4 ADD PUSH1 0x40 MLOAD DUP1 SWAP2 SUB SWAP1 REVERT JUMPDEST PUSH0 DUP2 PUSH0 SLOAD PUSH2 0x29E SWAP2 SWAP1 PUSH2 0xA2E JUMP JUMPDEST SWAP1 POP PUSH32 0x0 DUP2 GT ISZERO PUSH2 0x32A JUMPI PUSH32 0x0 DUP3 PUSH0 SLOAD PUSH1 0x40 MLOAD PUSH32 0x621E5A6900000000000000000000000000000000000000000000000000000000 DUP2 MSTORE PUSH1 0x4 ADD PUSH2 0x321 SWAP4 SWAP3 SWAP2 SWAP1 PUSH2 0xA61 JUMP JUMPDEST PUSH1 0x40 MLOAD DUP1 SWAP2 SUB SWAP1 REVERT JUMPDEST DUP2 PUSH1 0x1 PUSH0 DUP6 PUSH20 0xFFFFFFFFFFFFFFFFFFFFFFFFFFFFFFFFFFFFFFFF AND PUSH20 0xFFFFFFFFFFFFFFFFFFFFFFFFFFFFFFFFFFFFFFFF AND DUP2 MSTORE PUSH1 0x20 ADD SWAP1 DUP2 MSTORE PUSH1 0x20 ADD PUSH0 KECCAK256 PUSH0 DUP3 DUP3 SLOAD PUSH2 0x376 SWAP2 SWAP1 PUSH2 0xA2E JUMP JUMPDEST SWAP3 POP POP DUP2 SWAP1 SSTORE POP DUP1 PUSH0 DUP2 SWAP1 SSTORE POP PUSH1 0x1 PUSH1 0x2 PUSH0 DUP3 DUP3 SLOAD PUSH2 0x395 SWAP2 SWAP1 PUSH2 0xA2E JUMP JUMPDEST SWAP3 POP POP DUP2 SWAP1 SSTORE POP PUSH1 0x1 PUSH1 0x4 PUSH0 DUP6 PUSH20 0xFFFFFFFFFFFFFFFFFFFFFFFFFFFFFFFFFFFFFFFF AND PUSH20 0xFFFFFFFFFFFFFFFFFFFFFFFFFFFFFFFFFFFFFFFF AND DUP2 MSTORE PUSH1 0x20 ADD SWAP1 DUP2 MSTORE PUSH1 0x20 ADD PUSH0 KECCAK256 PUSH0 DUP3 DUP3 SLOAD PUSH2 0x3E9 SWAP2 SWAP1 PUSH2 0xA2E JUMP JUMPDEST SWAP3 POP POP DUP2 SWAP1 SSTORE POP DUP3 PUSH20 0xFFFFFFFFFFFFFFFFFFFFFFFFFFFFFFFFFFFFFFFF AND PUSH32 0x90890809C654F11D6E72A28FA60149770A0D11EC6C92319D6CEB2BB0A4EA1A15 DUP4 PUSH1 0x1 PUSH0 DUP8 PUSH20 0xFFFFFFFFFFFFFFFFFFFFFFFFFFFFFFFFFFFFFFFF AND PUSH20 0xFFFFFFFFFFFFFFFFFFFFFFFFFFFFFFFFFFFFFFFF AND DUP2 MSTORE PUSH1 0x20 ADD SWAP1 DUP2 MSTORE PUSH1 0x20 ADD PUSH0 KECCAK256 SLOAD PUSH1 0x40 MLOAD PUSH2 0x475 SWAP3 SWAP2 SWAP1 PUSH2 0xA96 JUMP JUMPDEST PUSH1 0x40 MLOAD DUP1 SWAP2 SUB SWAP1 LOG2 POP POP POP JUMP JUMPDEST PUSH0 SLOAD DUP2 JUMP JUMPDEST PUSH1 0x2 SLOAD DUP2 JUMP JUMPDEST PUSH1 0x1 PUSH1 0x5 SLOAD EQ PUSH2 0x4C9 JUMPI PUSH1 0x40 MLOAD PUSH32 0x37ED32E800000000000000000000000000000000000000000000000000000000 DUP2 MSTORE PUSH1 0x4 ADD PUSH1 0x40 MLOAD DUP1 SWAP2 SUB SWAP1 REVERT JUMPDEST PUSH1 0x2 PUSH1 0x5 DUP2 SWAP1 SSTORE POP PUSH0 DUP2 SUB PUSH2 0x50A JUMPI PUSH1 0x40 MLOAD PUSH32 0x9CF8540C00000000000000000000000000000000000000000000000000000000 DUP2 MSTORE PUSH1 0x4 ADD PUSH1 0x40 MLOAD DUP1 SWAP2 SUB SWAP1 REVERT JUMPDEST PUSH32 0x0 DUP2 GT ISZERO PUSH2 0x591 JUMPI PUSH32 0x0 DUP2 PUSH1 0x40 MLOAD PUSH32 0xD1E6B2FA00000000000000000000000000000000000000000000000000000000 DUP2 MSTORE PUSH1 0x4 ADD PUSH2 0x588 SWAP3 SWAP2 SWAP1 PUSH2 0xA96 JUMP JUMPDEST PUSH1 0x40 MLOAD DUP1 SWAP2 SUB SWAP1 REVERT JUMPDEST PUSH0 PUSH1 0x1 PUSH0 CALLER PUSH20 0xFFFFFFFFFFFFFFFFFFFFFFFFFFFFFFFFFFFFFFFF AND PUSH20 0xFFFFFFFFFFFFFFFFFFFFFFFFFFFFFFFFFFFFFFFF AND DUP2 MSTORE PUSH1 0x20 ADD SWAP1 DUP2 MSTORE PUSH1 0x20 ADD PUSH0 KECCAK256 SLOAD SWAP1 POP DUP1 DUP3 GT ISZERO PUSH2 0x619 JUMPI DUP1 DUP3 PUSH1 0x40 MLOAD PUSH32 0xCF47918100000000000000000000000000000000000000000000000000000000 DUP2 MSTORE PUSH1 0x4 ADD PUSH2 0x610 SWAP3 SWAP2 SWAP1 PUSH2 0xA96 JUMP JUMPDEST PUSH1 0x40 MLOAD DUP1 SWAP2 SUB SWAP1 REVERT JUMPDEST DUP2 DUP2 PUSH2 0x625 SWAP2 SWAP1 PUSH2 0xABD JUMP JUMPDEST PUSH1 0x1 PUSH0 CALLER PUSH20 0xFFFFFFFFFFFFFFFFFFFFFFFFFFFFFFFFFFFFFFFF AND PUSH20 0xFFFFFFFFFFFFFFFFFFFFFFFFFFFFFFFFFFFFFFFF AND DUP2 MSTORE PUSH1 0x20 ADD SWAP1 DUP2 MSTORE PUSH1 0x20 ADD PUSH0 KECCAK256 DUP2 SWAP1 SSTORE POP DUP2 PUSH0 DUP1 DUP3 DUP3 SLOAD PUSH2 0x676 SWAP2 SWAP1 PUSH2 0xABD JUMP JUMPDEST SWAP3 POP POP DUP2 SWAP1 SSTORE POP PUSH1 0x1 PUSH1 0x3 PUSH0 DUP3 DUP3 SLOAD PUSH2 0x68F SWAP2 SWAP1 PUSH2 0xA2E JUMP JUMPDEST SWAP3 POP POP DUP2 SWAP1 SSTORE POP PUSH2 0x6A0 CALLER DUP4 PUSH2 0x841 JUMP JUMPDEST CALLER PUSH20 0xFFFFFFFFFFFFFFFFFFFFFFFFFFFFFFFFFFFFFFFF AND PUSH32 0xF279E6A1F5E320CCA91135676D9CB6E44CA8A08C0B88342BCDB1144F6511B568 DUP4 PUSH1 0x1 PUSH0 CALLER PUSH20 0xFFFFFFFFFFFFFFFFFFFFFFFFFFFFFFFFFFFFFFFF AND PUSH20 0xFFFFFFFFFFFFFFFFFFFFFFFFFFFFFFFFFFFFFFFF AND DUP2 MSTORE PUSH1 0x20 ADD SWAP1 DUP2 MSTORE PUSH1 0x20 ADD PUSH0 KECCAK256 SLOAD PUSH1 0x40 MLOAD PUSH2 0x725 SWAP3 SWAP2 SWAP1 PUSH2 0xA96 JUMP JUMPDEST PUSH1 0x40 MLOAD DUP1 SWAP2 SUB SWAP1 LOG2 POP PUSH1 0x1 PUSH1 0x5 DUP2 SWAP1 SSTORE POP POP JUMP JUMPDEST PUSH1 0x4 PUSH1 0x20 MSTORE DUP1 PUSH0 MSTORE PUSH1 0x40 PUSH0 KECCAK256 PUSH0 SWAP2 POP SWAP1 POP SLOAD DUP2 JUMP JUMPDEST PUSH1 0x3 SLOAD DUP2 JUMP JUMPDEST PUSH32 0x0 DUP2 JUMP JUMPDEST PUSH0 SELFBALANCE SWAP1 POP SWAP1 JUMP JUMPDEST PUSH1 0x1 PUSH1 0x5 SLOAD EQ PUSH2 0x7BB JUMPI PUSH1 0x40 MLOAD PUSH32 0x37ED32E800000000000000000000000000000000000000000000000000000000 DUP2 MSTORE PUSH1 0x4 ADD PUSH1 0x40 MLOAD DUP1 SWAP2 SUB SWAP1 REVERT JUMPDEST PUSH1 0x2 PUSH1 0x5 DUP2 SWAP1 SSTORE POP PUSH2 0x7CD CALLER CALLVALUE PUSH2 0x257 JUMP JUMPDEST PUSH1 0x1 PUSH1 0x5 DUP2 SWAP1 SSTORE POP JUMP JUMPDEST PUSH0 PUSH1 0x1 PUSH0 DUP4 PUSH20 0xFFFFFFFFFFFFFFFFFFFFFFFFFFFFFFFFFFFFFFFF AND PUSH20 0xFFFFFFFFFFFFFFFFFFFFFFFFFFFFFFFFFFFFFFFF AND DUP2 MSTORE PUSH1 0x20 ADD SWAP1 DUP2 MSTORE PUSH1 0x20 ADD PUSH0 KECCAK256 SLOAD SWAP1 POP SWAP2 SWAP1 POP JUMP JUMPDEST PUSH32 0x0 DUP2 JUMP JUMPDEST PUSH0 DUP3 PUSH20 0xFFFFFFFFFFFFFFFFFFFFFFFFFFFFFFFFFFFFFFFF AND DUP3 PUSH1 0x40 MLOAD PUSH2 0x866 SWAP1 PUSH2 0xB1D JUMP JUMPDEST PUSH0 PUSH1 0x40 MLOAD DUP1 DUP4 SUB DUP2 DUP6 DUP8 GAS CALL SWAP3 POP POP POP RETURNDATASIZE DUP1 PUSH0 DUP2 EQ PUSH2 0x8A0 JUMPI PUSH1 0x40 MLOAD SWAP2 POP PUSH1 0x1F NOT PUSH1 0x3F RETURNDATASIZE ADD AND DUP3 ADD PUSH1 0x40 MSTORE RETURNDATASIZE DUP3 MSTORE RETURNDATASIZE PUSH0 PUSH1 0x20 DUP5 ADD RETURNDATACOPY PUSH2 0x8A5 JUMP JUMPDEST PUSH1 0x60 SWAP2 POP JUMPDEST POP POP SWAP1 POP DUP1 PUSH2 0x8ED JUMPI DUP3 DUP3 PUSH1 0x40 MLOAD PUSH32 0x1C43B97600000000000000000000000000000000000000000000000000000000 DUP2 MSTORE PUSH1 0x4 ADD PUSH2 0x8E4 SWAP3 SWAP2 SWAP1 PUSH2 0xB40 JUMP JUMPDEST PUSH1 0x40 MLOAD DUP1 SWAP2 SUB SWAP1 REVERT JUMPDEST POP POP POP JUMP JUMPDEST PUSH0 DUP2 SWAP1 POP SWAP2 SWAP1 POP JUMP JUMPDEST PUSH2 0x904 DUP2 PUSH2 0x8F2 JUMP JUMPDEST DUP3 MSTORE POP POP JUMP JUMPDEST PUSH0 PUSH1 0x20 DUP3 ADD SWAP1 POP PUSH2 0x91D PUSH0 DUP4 ADD DUP5 PUSH2 0x8FB JUMP JUMPDEST SWAP3 SWAP2 POP POP JUMP JUMPDEST PUSH0 DUP1 REVERT JUMPDEST PUSH2 0x930 DUP2 PUSH2 0x8F2 JUMP JUMPDEST DUP2 EQ PUSH2 0x93A JUMPI PUSH0 DUP1 REVERT JUMPDEST POP JUMP JUMPDEST PUSH0 DUP2 CALLDATALOAD SWAP1 POP PUSH2 0x94B DUP2 PUSH2 0x927 JUMP JUMPDEST SWAP3 SWAP2 POP POP JUMP JUMPDEST PUSH0 PUSH1 0x20 DUP3 DUP5 SUB SLT ISZERO PUSH2 0x966 JUMPI PUSH2 0x965 PUSH2 0x923 JUMP JUMPDEST JUMPDEST PUSH0 PUSH2 0x973 DUP5 DUP3 DUP6 ADD PUSH2 0x93D JUMP JUMPDEST SWAP2 POP POP SWAP3 SWAP2 POP POP JUMP JUMPDEST PUSH0 PUSH20 0xFFFFFFFFFFFFFFFFFFFFFFFFFFFFFFFFFFFFFFFF DUP3 AND SWAP1 POP SWAP2 SWAP1 POP JUMP JUMPDEST PUSH0 PUSH2 0x9A5 DUP3 PUSH2 0x97C JUMP JUMPDEST SWAP1 POP SWAP2 SWAP1 POP JUMP JUMPDEST PUSH2 0x9B5 DUP2 PUSH2 0x99B JUMP JUMPDEST DUP2 EQ PUSH2 0x9BF JUMPI PUSH0 DUP1 REVERT JUMPDEST POP JUMP JUMPDEST PUSH0 DUP2 CALLDATALOAD SWAP1 POP PUSH2 0x9D0 DUP2 PUSH2 0x9AC JUMP JUMPDEST SWAP3 SWAP2 POP POP JUMP JUMPDEST PUSH0 PUSH1 0x20 DUP3 DUP5 SUB SLT ISZERO PUSH2 0x9EB JUMPI PUSH2 0x9EA PUSH2 0x923 JUMP JUMPDEST JUMPDEST PUSH0 PUSH2 0x9F8 DUP5 DUP3 DUP6 ADD PUSH2 0x9C2 JUMP JUMPDEST SWAP2 POP POP SWAP3 SWAP2 POP POP JUMP JUMPDEST PUSH32 0x4E487B7100000000000000000000000000000000000000000000000000000000 PUSH0 MSTORE PUSH1 0x11 PUSH1 0x4 MSTORE PUSH1 0x24 PUSH0 REVERT JUMPDEST PUSH0 PUSH2 0xA38 DUP3 PUSH2 0x8F2 JUMP JUMPDEST SWAP2 POP PUSH2 0xA43 DUP4 PUSH2 0x8F2 JUMP JUMPDEST SWAP3 POP DUP3 DUP3 ADD SWAP1 POP DUP1 DUP3 GT ISZERO PUSH2 0xA5B JUMPI PUSH2 0xA5A PUSH2 0xA01 JUMP JUMPDEST JUMPDEST SWAP3 SWAP2 POP POP JUMP JUMPDEST PUSH0 PUSH1 0x60 DUP3 ADD SWAP1 POP PUSH2 0xA74 PUSH0 DUP4 ADD DUP7 PUSH2 0x8FB JUMP JUMPDEST PUSH2 0xA81 PUSH1 0x20 DUP4 ADD DUP6 PUSH2 0x8FB JUMP JUMPDEST PUSH2 0xA8E PUSH1 0x40 DUP4 ADD DUP5 PUSH2 0x8FB JUMP JUMPDEST SWAP5 SWAP4 POP POP POP POP JUMP JUMPDEST PUSH0 PUSH1 0x40 DUP3 ADD SWAP1 POP PUSH2 0xAA9 PUSH0 DUP4 ADD DUP6 PUSH2 0x8FB JUMP JUMPDEST PUSH2 0xAB6 PUSH1 0x20 DUP4 ADD DUP5 PUSH2 0x8FB JUMP JUMPDEST SWAP4 SWAP3 POP POP POP JUMP JUMPDEST PUSH0 PUSH2 0xAC7 DUP3 PUSH2 0x8F2 JUMP JUMPDEST SWAP2 POP PUSH2 0xAD2 DUP4 PUSH2 0x8F2 JUMP JUMPDEST SWAP3 POP DUP3 DUP3 SUB SWAP1 POP DUP2 DUP2 GT ISZERO PUSH2 0xAEA JUMPI PUSH2 0xAE9 PUSH2 0xA01 JUMP JUMPDEST JUMPDEST SWAP3 SWAP2 POP POP JUMP JUMPDEST PUSH0 DUP2 SWAP1 POP SWAP3 SWAP2 POP POP JUMP JUMPDEST POP JUMP JUMPDEST PUSH0 PUSH2 0xB08 PUSH0 DUP4 PUSH2 0xAF0 JUMP JUMPDEST SWAP2 POP PUSH2 0xB13 DUP3 PUSH2 0xAFA JUMP JUMPDEST PUSH0 DUP3 ADD SWAP1 POP SWAP2 SWAP1 POP JUMP JUMPDEST PUSH0 PUSH2 0xB27 DUP3 PUSH2 0xAFD JUMP JUMPDEST SWAP2 POP DUP2 SWAP1 POP SWAP2 SWAP1 POP JUMP JUMPDEST PUSH2 0xB3A DUP2 PUSH2 0x99B JUMP JUMPDEST DUP3 MSTORE POP POP JUMP JUMPDEST PUSH0 PUSH1 0x40 DUP3 ADD SWAP1 POP PUSH2 0xB53 PUSH0 DUP4 ADD DUP6 PUSH2 0xB31 JUMP JUMPDEST PUSH2 0xB60 PUSH1 0x20 DUP4 ADD DUP5 PUSH2 0x8FB JUMP JUMPDEST SWAP4 SWAP3 POP POP POP JUMP INVALID LOG2 PUSH5 0x6970667358 0x22 SLT KECCAK256 CODECOPY ORIGIN 0x23 0x4C SWAP9 DUP15 SLOAD 0xE4 DUP14 GASPRICE PUSH14 0x4E86A915A21EA2B402A044CAD279 BYTE PUSH13 0xCB04123CB64736F6C63430008 EQ STOP CALLER "
				},
				"gasEstimates": {
					"creation": {
						"codeDepositCost": "594600",
						"executionCost": "infinite",
						"totalCost": "infinite"
					},
					"external": {
						"": "infinite",
						"bankCap()": "infinite",
						"contractBalance()": "356",
						"deposit()": "infinite",
						"depositCount()": "2448",
						"depositCountPerUser(address)": "2869",
						"getVaultBalance(address)": "2895",
						"maxWithdrawPerTx()": "infinite",
						"totalBankBalance()": "2425",
						"withdraw(uint256)": "infinite",
						"withdrawCount()": "2514"
					},
					"internal": {
						"_deposit(address,uint256)": "infinite",
						"_safeSendETH(address,uint256)": "infinite"
					}
				},
				"methodIdentifiers": {
					"bankCap()": "ecbea24d",
					"contractBalance()": "8b7afe2e",
					"deposit()": "d0e30db0",
					"depositCount()": "2dfdf0b5",
					"depositCountPerUser(address)": "390d3f62",
					"getVaultBalance(address)": "d3d7c002",
					"maxWithdrawPerTx()": "5d926ced",
					"totalBankBalance()": "1977e938",
					"withdraw(uint256)": "2e1a7d4d",
					"withdrawCount()": "4cc05a71"
				}
			},
			"storageLayout": {
				"storage": [
					{
						"astId": 47,
						"contract": "contracts/KipuBank.sol:KipuBank",
						"label": "totalBankBalance",
						"offset": 0,
						"slot": "0",
						"type": "t_uint256"
					},
					{
						"astId": 52,
						"contract": "contracts/KipuBank.sol:KipuBank",
						"label": "vaults",
						"offset": 0,
						"slot": "1",
						"type": "t_mapping(t_address,t_uint256)"
					},
					{
						"astId": 55,
						"contract": "contracts/KipuBank.sol:KipuBank",
						"label": "depositCount",
						"offset": 0,
						"slot": "2",
						"type": "t_uint256"
					},
					{
						"astId": 58,
						"contract": "contracts/KipuBank.sol:KipuBank",
						"label": "withdrawCount",
						"offset": 0,
						"slot": "3",
						"type": "t_uint256"
					},
					{
						"astId": 63,
						"contract": "contracts/KipuBank.sol:KipuBank",
						"label": "depositCountPerUser",
						"offset": 0,
						"slot": "4",
						"type": "t_mapping(t_address,t_uint256)"
					},
					{
						"astId": 67,
						"contract": "contracts/KipuBank.sol:KipuBank",
						"label": "_locked",
						"offset": 0,
						"slot": "5",
						"type": "t_uint256"
					}
				],
				"types": {
					"t_address": {
						"encoding": "inplace",
						"label": "address",
						"numberOfBytes": "20"
					},
					"t_mapping(t_address,t_uint256)": {
						"encoding": "mapping",
						"key": "t_address",
						"label": "mapping(address => uint256)",
						"numberOfBytes": "32",
						"value": "t_uint256"
					},
					"t_uint256": {
						"encoding": "inplace",
						"label": "uint256",
						"numberOfBytes": "32"
					}
				}
			},
			"userdoc": {
				"errors": {
					"BankCapExceeded(uint256,uint256,uint256)": [
						{
							"notice": "El depósito excede la capacidad total del banco"
						}
					],
					"ExceedsPerTxLimit(uint256,uint256)": [
						{
							"notice": "El retiro excede el límite máximo por transacción"
						}
					],
					"InsufficientBalance(uint256,uint256)": [
						{
							"notice": "Saldo insuficiente en la bóveda para la operación"
						}
					],
					"ReentrantCall()": [
						{
							"notice": "Llamada reentrante detectada"
						}
					],
					"TransferFailed(address,uint256)": [
						{
							"notice": "Falló la transferencia de ETH"
						}
					],
					"ZeroValueNotAllowed()": [
						{
							"notice": "No se permiten valores nulos (cero) para esta operación"
						}
					]
				},
				"events": {
					"Deposit(address,uint256,uint256)": {
						"notice": "Emitido cuando un usuario deposita ETH en su bóveda"
					},
					"Withdraw(address,uint256,uint256)": {
						"notice": "Emitido cuando un usuario retira ETH de su bóveda"
					}
				},
				"kind": "user",
				"methods": {
					"bankCap()": {
						"notice": "Límite global (inmutable) de ETH que el banco puede contener (wei)"
					},
					"constructor": {
						"notice": "Inicializa el límite global de depósito y el límite máximo de retiro por transacción"
					},
					"contractBalance()": {
						"notice": "Devuelve el balance total de ETH (wei) que el contrato posee (balance de la cuenta de contrato)."
					},
					"deposit()": {
						"notice": "Función principal para depositar ETH en la bóveda del remitente."
					},
					"depositCount()": {
						"notice": "Contador total de depósitos realizados"
					},
					"depositCountPerUser(address)": {
						"notice": "Contador de depósitos por usuario"
					},
					"getVaultBalance(address)": {
						"notice": "Devuelve el balance en wei de la bóveda de `account`."
					},
					"maxWithdrawPerTx()": {
						"notice": "Límite máximo por retiro y por transacción (inmutable) (wei)"
					},
					"totalBankBalance()": {
						"notice": "Suma de todos los saldos almacenados en `vaults`"
					},
					"withdraw(uint256)": {
						"notice": "Retira ETH de la bóveda del remitente."
					},
					"withdrawCount()": {
						"notice": "Contador total de retiros realizados"
					}
				},
				"notice": "Contrato educativo que implementa bóvedas de ETH personales con límites de depósito global y de retiro por transacción. Sigue buenas prácticas: errores personalizados, Checks-Effects-Interactions, guard contra reentrancy y manejo seguro de ETH.",
				"version": 1
			}
		}
	}
}